:020000040800F2
:100000000050002011760008154700081B47000823
:1000100021470008274700082D470008000000007E
:10002000000000000000000000000000334700084E
:100030003F470008000000004B47000857470008F2
:100040005976000859760008597600085976000854
:100050005976000859760008597600085976000844
:100060005976000859760008597600085976000834
:100070005976000865470008794700085976000856
:100080005976000859760008597600085976000814
:100090005976000859760008597600085976000804
:1000A00059760008597600085976000859760008F4
:1000B0003D2C00085976000859760008597600084A
:1000C00059760008597600085976000859760008D4
:1000D0008D470008597600085976000859760008BF
:1000E000A147000859760008597600080000000072
:1000F0000000000000000000000000000000000000
:0C01000000000000000000005FF808F1A3
:10010C0010F8012B11F8013B012A28BF9A42F7D0B5
:10011C00D01A7047034613F8012B002AFBD1181A8A
:10012C00013870470348044B834202D0034B03B1A0
:10013C00184770479000002090000020000000003D
:10014C000548064B1B1AD90F01EBA301491002D02D
:10015C00034B03B11847704790000020900000201B
:10016C000000000010B5064C237843B9FFF7DAFF06
:10017C00044B13B10448AFF300800123237010BD6E
:10018C009000002000000000F089000808B5054B25
:10019C001BB105490548AFF30080BDE80840FFF7E7
:1001AC00CFBF00BF0000000094000020F0890008C1
:1001BC0090B5C5B008AFA34B1B680021184602F0E0
:1001CC002AF807F19C0300221A605A609A60DA60E0
:1001DC00C3F80F2007F1880300221A605A609A6056
:1001EC00DA60C3F80F204FF6FF73A7F8EE30012347
:1001FC00C7F8E8300EE0D7F8E830013B9249D7F861
:10020C00E8200A441178914AD154D7F8E8300133E8
:10021C00C7F8E830D7F8E830122BECDD8B4B002216
:10022C009A740023C7F8E43010E0884AD7F8E43019
:10023C0013441B78242B04D1D7F8E430A7F8EE3004
:10024C0008E0D7F8E4300133C7F8E430D7F8E430ED
:10025C00112BEADDB7F8EE304FF6FF72934200F047
:10026C00C98000230793B623069304230593012327
:10027C00049302230393022302930123019300238B
:10028C000093002300220221002001F075FE07F1EB
:10029C00740300221A605A609A60DA60C3F80F2067
:1002AC000123C7F8E03017E0674AD7F8E030134471
:1002BC001B78242B15D0D7F8E030013B6249D7F8D6
:1002CC00E0200A441278F0333B4403F87C2CD7F836
:1002DC00E0300133C7F8E030D7F8E030122BE3DD23
:1002EC0000E000BF07F17403184601F067FF05201A
:1002FC0004F01CFB02F0EBFB01F0C8FD01F0C8FFA1
:10030C00B7F8EE301A4652001A44920013449B0080
:10031C00A7F8B230B7F8B2300793B623069304238C
:10032C0005930123049302230393022302930123D5
:10033C00019300230093002300220221022001F0EC
:10034C001BFE042001F0ECFB002001F011FC00204E
:10035C0001F00EFC022004F0E9FAB7F8EE3001339C
:10036C00342202FB03F30793B6230693042305936D
:10037C000123049302230393022302930123019389
:10038C0000230093002300220221002001F0F4FD41
:10039C0007F1600300221A605A609A60DA60C3F8B1
:1003AC000F200023C7F8DC30B7F8EE300133C7F864
:1003BC00D83012E0D7F8DC305A1CC7F8DC202349BF
:1003CC00D7F8D8200A441278F0333B4403F8902C29
:1003DC00D7F8D8300133C7F8D830D7F8D830122B2B
:1003EC00E8DD002387F8723007F16003184601F04E
:1003FC00E5FECEE1164B1B78002B00F08B81154BE4
:10040C001B78002B00F086811349104807F0CDF9BA
:10041C000346002B40F07E8110490C4807F0B4F9DC
:10042C000346002B00F0768107F14C0300221A6082
:10043C005A609A60DA60C3F80F200123C7F8D430F1
:10044C001FE000BF000000206C020020B000002064
:10045C00E3000020AC000020088A0008148A000881
:10046C00D7F8D430013BCD49D7F8D4200A441278C0
:10047C00F0333B4403F8A42CD7F8D4300133C7F83D
:10048C00D430D7F8D430122BEADD07F13803002230
:10049C001A605A609A60DA60C3F80F2007F12803DB
:1004AC0000221A605A609A601A73BD4B7B6207F186
:1004BC00140300221A605A609A601A7307F138020A
:1004CC0007F14C03B749184607F0F8F807F1280272
:1004DC0007F14C03B449184607F0F0F807F128036C
:1004EC002E21184607F030F9C7F8B800D7F8B83005
:1004FC00002B05D007F12803D7F8B820D31A05E054
:10050C0007F128031846FFF705FE0346C7F8B43079
:10051C000023C7F8D030D7F8B430032B49DD0023C3
:10052C00C7F8CC3013E0D7F8D0305A1CC7F8D0201D
:10053C0007F12801D7F8CC200A441278F0333B4459
:10054C0003F8DC2CD7F8CC300133C7F8CC30D7F813
:10055C00B430033BD7F8CC209A42E4DBD7F8D03048
:10056C005A1CC7F8D020F0333B442E2203F8DC2C65
:10057C00D7F8B430033BC7F8C83013E0D7F8D03005
:10058C005A1CC7F8D02007F12801D7F8C8200A4414
:10059C001278F0333B4403F8DC2CD7F8C830013325
:1005AC00C7F8C830D7F8C820D7F8B4309A42E5DB82
:1005BC004CE0D7F8D0305A1CC7F8D020F0333B446D
:1005CC00302203F8DC2CD7F8D0305A1CC7F8D020D6
:1005DC00F0333B442E2203F8DC2C0023C7F8C43044
:1005EC000EE0D7F8D0305A1CC7F8D020F0333B447B
:1005FC00302203F8DC2CD7F8C4300133C7F8C430F0
:10060C00D7F8B430C3F10303D7F8C4209A42E8DB1F
:10061C000023C7F8C03013E0D7F8D0305A1CC7F805
:10062C00D02007F12801D7F8C0200A441278F03303
:10063C003B4403F8DC2CD7F8C0300133C7F8C0308A
:10064C00D7F8C020D7F8B4309A42E5DBD7F8B830E9
:10065C00002B0BD0D7F8D03007F114021A44D7F87E
:10066C00B83001331946104607F0E2F807F14C0395
:10067C0012222021184607F05FF8002387F85E301D
:10068C0097F8383087F84C30202387F84D3007F135
:10069C004C04023407F114031846FFF73BFD0246E5
:1006AC0007F114031946204607F05BF807F1240301
:1006BC001846FFF72FFD0346C3F1120307F14C0256
:1006CC00D41807F124031846FFF724FD024607F15E
:1006DC0024031946204607F044F800230793B62359
:1006EC00069304230593012304930223039302230B
:1006FC000293012301930023009300230022022183
:10070C00002001F039FC07F14C03184601F056FDAE
:10071C0000BF3EE000230793B62306930423059302
:10072C0001230493022303930223029301230193D5
:10073C0000230093002300220221002001F01CFC66
:10074C003B4600221A605A609A60DA60C3F80F20A8
:10075C000123C7F8BC3010E0D7F8BC30013B0F497F
:10076C00D7F8BC200A441278F0333B4403F8F02C41
:10077C00D7F8BC300133C7F8BC30D7F8BC30122BDB
:10078C00EADD0023BB743B46184601F017FD00F070
:10079C000DF800BFF437BD4690BD00BF6C020020C1
:1007AC0056444300208A0008288A000880B500AF10
:1007BC001349144806F0F9FF0346002B14BF01231C
:1007CC000023DAB2104B1A700F4B1A780F4B1B78B0
:1007DC009A420ED00C4B1B78002B05D0002002F057
:1007EC009DF802F087F804E0642002F097F802F01C
:1007FC0069F8054B1A78054B1A7000BF80BD00BF15
:10080C00388A0008B0000020C3000020C40000207B
:10081C0080B5A4B008AFAC4B1B680021184601F0A2
:10082C00FAFC07F12C031E220021184606F084FF67
:10083C00A64A07F1200307CA03C31A800023FB66EC
:10084C001323BB660CE0BB6E133BA149BA6E0A4482
:10085C00127870333B4403F8442CBB6E0133BB66F7
:10086C00BB6E2F2BEFDD002387F8493000237B660E
:10087C0013E007F12C027B6E13441B78242B09D157
:10088C00FB6E5A1CFA667A6E92B25B0070333B4474
:10089C0023F8502C7B6E01337B667B6E1D2B02DCA8
:1008AC00FB6E042BE5DD0023A7F862303C23A7F890
:1008BC005630FB6E002B00F0B7800023FB65AEE0DA
:1008CC00FB6D002B08D0FB6D013B5B0070333B4490
:1008DC0033F8503C013300E000233B65FA6DFB6EAE
:1008EC009A4206DAFB6D5B0070333B4433F8503CA4
:1008FC0000E01E23FB643A6DFB6C9A424BDA3B46DC
:10090C001E220021184606F017FF3B6DBB650EE05A
:10091C00BA6D3B6DD31A07F12C01BA6D0A441278EB
:10092C0070333B4403F8702CBB6D0133BB65BA6D5F
:10093C00FB6C9A42ECDBFA6C3B6DD31A70333B4484
:10094C00002203F8702C3B6D9BB21A4652001344E4
:10095C00DB009AB2B7F856301344A7F86230B7F8F8
:10096C00623007934FF48C73069300230593012395
:10097C000493012303930123029301230193002386
:10098C000093002300220121002001F0F5FA3B46E0
:10099C00184601F013FC052003F0C8FF02F097F88D
:1009AC0001F0B0FA01F074FCFA6DFB6E9A4233DA86
:1009BC00FB6D5B0070333B4433F8503C1A465200DD
:1009CC001344DB00A7F84A30B7F85620B7F84A3082
:1009DC001344A7F86230B7F8623007934FF48C7366
:1009EC00069300230593012304930123039301230E
:1009FC000293012301930023009300230022012181
:100A0C00022001F0B9FA042001F08AF8002001F06C
:100A1C00AFF8002001F0ACF8FB6D0133FB65FA6D0B
:100A2C00FB6E9A427FF74CAFFB6E002B48D107F15F
:100A3C002C032849184606F0B8FE0346002B03D0B9
:100A4C00254B01221A7002E0234B00221A70234B13
:100A5C001B78002B07D0204B1B78002B03D03C239A
:100A6C00A7F8623002E03C23A7F86230B7F8623096
:100A7C0007934FF48C73069300230593052304937B
:100A8C000123039301230293012301930023009379
:100A9C00002300220121002001F06EFA0F4B1B787D
:100AAC00002B08D00C4B1B78002B04D00C4801F009
:100ABC0085FB00BF04E007F12C03184601F07EFB18
:100ACC0000BF7037BD4680BD04000020748A00084A
:100ADC006C020020448A0008AC000020E3000020D7
:100AEC00548A000880B5B0B008AF07F150034C220F
:100AFC000021184606F020FE684B3B65684B7B6571
:100B0C00684BBB65684BFB65684B3B66684B7B660B
:100B1C00684BBB66684BFB66684B3B67684B7B67F7
:100B2C00684BBB67684BFB67684BC7F88030684BFA
:100B3C00C7F88430674BC7F88830674BC7F88C30E0
:100B4C00664BC7F89030664BC7F894303B1D4C226F
:100B5C000021184606F0F0FD0A237B603E23BB60A3
:100B6C007223FB60A6233B61DA237B614FF487730E
:100B7C00BB614FF4A173FB614FF4BB733B624FF449
:100B8C00D5737B624FF4EF73BB6240F21223FB62AE
:100B9C0040F246233B6340F27A237B6340F2AE2360
:100BAC00BB6340F2E223FB6340F216333B6440F23A
:100BBC004A337B644FF46173BB640023C7F89C30E9
:100BCC0062E0D7F89C300133464AD35C002B2CD022
:100BDC00454B1B680021184601F01DFBD7F89C30D3
:100BEC009B00A0333B4453F89C3C079396230693FD
:100BFC0000230593052304930123039300230293FD
:100C0C0001230193002300930023002200210020E4
:100C1C0001F0B2F9D7F89C309B00A0333B4453F859
:100C2C00503C184601F0CAFA29E00021002001F0DE
:100C3C00F2FAD7F89C309B00A0333B4453F89C3C11
:100C4C00079396230693002305930523049301230E
:100C5C0003930023029301230193002300930023A9
:100C6C0000220021002001F087F9D7F89C309B006E
:100C7C00A0333B4453F8503C184601F09FFAD7F888
:100C8C009C300133C7F89C30D7F89C30112B98DD81
:100C9C0000BF00BFA037BD4680BD00BF808A0008E2
:100CAC00888A0008908A0008988A00089C8A0008A4
:100CBC00A48A0008AC8A0008B48A0008BC8A000820
:100CCC00C08A0008C88A0008D08A0008D88A0008A0
:100CDC00E08A0008E88A0008EC8A0008F08A00081C
:100CEC00F48A00089C02002008000020F0B5C1B076
:100CFC0008AF704B1B78002B00F0D7806E4B1B6835
:100D0C0001336D4A13606C4B1B688D2B5DD9694B9D
:100D1C0000221A7000214FF47F4001F07CFA64230A
:100D2C0007934FF4A57306930423059301230493AF
:100D3C0000230393002302930123019300230093C8
:100D4C00002300220021002001F016F95B4B07F173
:100D5C0044041D460FCD0FC40FCD0FC40FCD0FC4CF
:100D6C0095E8070084E8070007F14403184601F0F2
:100D7C0025FA00214FF47F0001F04DFA4FF4207357
:100D8C0007938223069304230593012304930023E2
:100D9C000393002302930123019300230093002368
:100DAC0000220021002001F0E7F8454B07F1C404B4
:100DBC001D460FCD0FC495E8070003C4227007F140
:100DCC00C403184601F0FAF96FE000214FF47F409C
:100DDC0001F021FA642307934FF4A57306930423BF
:100DEC00059301230493002303930023029301230F
:100DFC00019300230093002300220021002001F026
:100E0C00BBF8304B07F108041D460FCD0FC40FCDB6
:100E1C000FC40FCD0FC495E8070084E8070007F155
:100E2C000803184601F0CAF90021274801F0F3F92C
:100E3C004FF4207307938223069304230593012315
:100E4C0004930023039300230293012301930023B3
:100E5C000093002300220021002001F08DF81B4B91
:100E6C001B687B601A4B1B681A4A12681A4909687E
:100E7C001A4800681A4C24681A4D2D6807F144066C
:100E8C00DFF864C0CDF818C0059504940390029166
:100E9C00019200937B68154A8021304606F0D8FBFE
:100EAC0007F14403184601F089F900BFE437BD4649
:100EBC00F0BD00BF0C000020C8000020108B000803
:100ECC004C8B0008688B000890909000100000205C
:100EDC0014000020180000201C000020200000201E
:100EEC0024000020280000202C000020F88A000894
:100EFC0080B584B000AF03460A46FB8013467B7175
:100F0C007B79013BFB6025E0FA88FB6842FA03F32E
:100F1C0003F00103002B05D001222021114804F01D
:100F2C0070FC04E0002220210E4804F06AFC01222F
:100F3C0010210C4804F065FC052000F05DF800223F
:100F4C001021084804F05DFC052000F055F8FB6802
:100F5C00013BFB60FB68002BD6DA00BF00BF1037EB
:100F6C00BD4680BD000C014080B582B000AF034689
:100F7C00FB71002208210C4804F043FC0A2000F00D
:100F8C003BF8FB799BB209211846FFF7B1FF012210
:100F9C000821054804F035FC0A2000F02DF800BFAC
:100FAC000837BD4680BD00BF000C014080B582B043
:100FBC0000AF0346FB71002208210E4804F021FC0F
:100FCC000A2000F019F8FB791BB243F480731BB2B2
:100FDC009BB209211846FFF78BFF01220821054817
:100FEC0004F00FFC0A2000F007F800BF0837BD46DC
:100FFC0080BD00BF000C014080B586B000AF034639
:10100C00FB80154B9B687B6105F018F80346134A6F
:10101C00A2FB03239B0CFA8802FB03F33B610E4BF0
:10102C005B680133FB6008E00B4B9B68FA689A42E3
:10103C0003D27A69FB68D31A7B61074B9B687A6988
:10104C00D31A23F07F433A699A42EDD800BF00BF10
:10105C001837BD4680BD00BF10E000E083DE1B43A7
:10106C0080B500AFFF20FFF77FFF7720FFF79EFFD3
:10107C000120FFF79BFF0020FFF798FF0020FFF7F0
:10108C0095FF1320FFF792FFEF20FFF76DFF08206D
:10109C00FFF78CFFFF20FFF767FF7720FFF786FF36
:1010AC000120FFF783FF0020FFF780FF0020FFF7F0
:1010BC007DFF1020FFF77AFFC020FFF755FF772048
:1010CC00FFF774FF0020FFF771FF0920FFF76EFF99
:1010DC000820FFF76BFFC220FFF746FF0120FFF748
:1010EC0065FF0220FFF762FFC320FFF73DFF0220E0
:1010FC00FFF75CFFCC20FFF737FF1020FFF756FF00
:10110C00B020FFF731FF4020FFF750FF1420FFF70E
:10111C004DFF5920FFF74AFF1020FFF747FF122021
:10112C00FFF744FF0820FFF741FF0320FFF73EFFC6
:10113C000920FFF73BFF0520FFF738FF1E20FFF7C4
:10114C0035FF0520FFF732FF1420FFF72FFF10208B
:10115C00FFF72CFF6820FFF729FF3320FFF726FF4E
:10116C001520FFF723FFB120FFF7FEFE4020FFF70D
:10117C001DFF0820FFF71AFF5320FFF717FF092068
:10118C00FFF714FF1120FFF711FF0920FFF70EFFE7
:10119C000220FFF70BFF0720FFF708FF0920FFF7DE
:1011AC0005FF1A20FFF702FF0420FFF7FFFE1220B5
:1011BC00FFF7FCFE1220FFF7F9FE6420FFF7F6FEA6
:1011CC002920FFF7F3FE2920FFF7F0FEFF20FFF7A1
:1011DC00CBFE7720FFF7EAFE0120FFF7E7FE0020A9
:1011EC00FFF7E4FE0020FFF7E1FE1120FFF7DEFE23
:1011FC00B020FFF7B9FE6D20FFF7D8FEB120FFF746
:10120C00B3FE1D20FFF7D2FEB220FFF7ADFE872004
:10121C00FFF7CCFEB320FFF7A7FE8020FFF7C6FE3A
:10122C00B520FFF7A1FE4920FFF7C0FEB720FFF75E
:10123C009BFE8520FFF7BAFEB820FFF795FE202015
:10124C00FFF7B4FEC120FFF78FFE7820FFF7AEFE4C
:10125C00C220FFF789FE7820FFF7A8FED020FFF709
:10126C0083FE8820FFF7A2FEE020FFF77DFE002022
:10127C00FFF79CFE0020FFF799FE0220FFF796FE79
:10128C00E120FFF771FE0220FFF790FE8C20FFF7A4
:10129C008DFE0020FFF78AFE0020FFF787FE03205B
:1012AC00FFF784FE8C20FFF781FE0020FFF77EFE07
:1012BC000020FFF77BFE0020FFF778FE3320FFF7BE
:1012CC0075FE3320FFF772FEE220FFF74DFE332050
:1012DC00FFF76CFE3320FFF769FE3320FFF766FE45
:1012EC003320FFF763FEC920FFF760FE3C20FFF7B9
:1012FC005DFE0020FFF75AFE0020FFF757FECA20C4
:10130C00FFF754FE3C20FFF751FE0020FFF74EFE86
:10131C000020FFF74BFE0020FFF748FEE320FFF70D
:10132C0023FE0020FFF742FE0020FFF73FFE332094
:10133C00FFF73CFE3320FFF739FEE420FFF714FEE5
:10134C004420FFF733FE4420FFF730FEE520FFF783
:10135C000BFE0520FFF72AFECD20FFF727FE82208B
:10136C00FFF724FE8220FFF721FE0120FFF71EFE6F
:10137C00C920FFF71BFE8220FFF718FE8220FFF723
:10138C0015FE0720FFF712FECF20FFF70FFE82207D
:10139C00FFF70CFE8220FFF709FE0320FFF706FE85
:1013AC00CB20FFF703FE8220FFF700FE8220FFF721
:1013BC00FDFDE620FFF7D8FD0020FFF7F7FD00202C
:1013CC00FFF7F4FD3320FFF7F1FD3320FFF7EEFDBF
:1013DC00E720FFF7C9FD4420FFF7E8FD4420FFF7A5
:1013EC00E5FDE820FFF7C0FD0620FFF7DFFDCE206E
:1013FC00FFF7DCFD8220FFF7D9FD8220FFF7D6FD39
:10140C000220FFF7D3FDCA20FFF7D0FD8220FFF7A3
:10141C00CDFD8220FFF7CAFD0820FFF7C7FDD020C5
:10142C00FFF7C4FD8220FFF7C1FD8220FFF7BEFD50
:10143C000420FFF7BBFDCC20FFF7B8FD8220FFF79F
:10144C00B5FD8220FFF7B2FDEB20FFF78DFD0820E4
:10145C00FFF7ACFD0120FFF7A9FDE420FFF7A6FD87
:10146C00E420FFF7A3FD8820FFF7A0FD0020FFF785
:10147C009DFD4020FFF79AFDEC20FFF775FD002045
:10148C00FFF794FD0020FFF791FD0020FFF78EFD84
:10149C00ED20FFF769FDFF20FFF788FDF020FFF737
:1014AC0085FD0720FFF782FD6520FFF77FFD4F20AC
:1014BC00FFF77CFDFC20FFF779FDC220FFF776FDDE
:1014CC002F20FFF773FDF220FFF770FD2C20FFF7A4
:1014DC006DFDCF20FFF76AFDF420FFF767FD562066
:1014EC00FFF764FD7020FFF761FD0F20FFF75EFD35
:1014FC00FF20FFF75BFDEF20FFF736FD1020FFF715
:10150C0055FD0D20FFF752FD0420FFF74FFD08207D
:10151C00FFF74CFD3F20FFF749FD1F20FFF746FD6D
:10152C00FF20FFF721FD7720FFF740FD0120FFF79B
:10153C003DFD0020FFF73AFD0020FFF737FD0020AE
:10154C00FFF734FD1120FFF70FFD782003F0EEF9C3
:10155C003520FFF709FD0020FFF728FD3A20FFF7A3
:10156C0003FD6620FFF722FD2920FFF7FDFC00BFDD
:10157C0080BD80B582B000AFFF20FFF7F5FC77206F
:10158C00FFF714FD0120FFF711FD0020FFF70EFD02
:10159C000020FFF70BFD1320FFF708FDEF20FFF7EE
:1015AC00E3FC0820FFF702FDFF20FFF7DDFC7720AE
:1015BC00FFF7FCFC0120FFF7F9FC0020FFF7F6FC1D
:1015CC000020FFF7F3FC1020FFF7F0FCC020FFF722
:1015DC00CBFC7720FFF7EAFC0020FFF7E7FCC120EB
:1015EC00FFF7C2FC0A20FFF7E1FC0C20FFF7DEFC42
:1015FC00C220FFF7B9FC3720FFF7D8FC0820FFF713
:10160C00D5FCC320FFF7B0FC8120FFF7CFFC3820BE
:10161C00FFF7CCFC2220FFF7C9FCCC20FFF7A4FC81
:10162C001020FFF7C3FCB020FFF79EFC4020FFF713
:10163C00BDFC1420FFF7BAFC5920FFF7B7FC1020B3
:10164C00FFF7B4FC1220FFF7B1FC0820FFF7AEFC4B
:10165C000320FFF7ABFC0920FFF7A8FC0520FFF7E0
:10166C00A5FC1E20FFF7A2FC0520FFF79FFC142011
:10167C00FFF79CFC1020FFF799FC6820FFF796FC05
:10168C003320FFF793FC1520FFF790FCB120FFF7F8
:10169C006BFC4020FFF78AFC0820FFF787FC5320E7
:1016AC00FFF784FC0920FFF781FC1120FFF77EFC7B
:1016BC000920FFF77BFC0220FFF778FC0720FFF7DF
:1016CC0075FC0920FFF772FC1A20FFF76FFC042051
:1016DC00FFF76CFC1220FFF769FC1220FFF766FC89
:1016EC006420FFF763FC2920FFF760FC2920FFF73B
:1016FC005DFCFF20FFF738FC7720FFF757FC01203B
:10170C00FFF754FC0020FFF751FC0020FFF74EFCC4
:10171C001120FFF74BFCB020FFF726FC6D20FFF7E4
:10172C0045FCB120FFF720FC1D20FFF73FFCB22049
:10173C00FFF71AFC8720FFF739FCB320FFF714FCE6
:10174C000020FFF733FCB520FFF70EFC4920FFF714
:10175C002DFCB720FFF708FC8520FFF727FCB820ED
:10176C00FFF702FC2020FFF721FCC120FFF7FCFB58
:10177C007820FFF71BFCC220FFF7F6FB7820FFF761
:10178C0015FCD020FFF7F0FB8820FFF70FFCE020C2
:10179C00FFF7EAFB0020FFF709FC0020FFF706FC2F
:1017AC000220FFF703FC0023FB710223BB71FB79C2
:1017BC00002B01D0102200E0002297F9063003F034
:1017CC0003035BB213435BB27B71E120FFF7CCFBED
:1017DC007B791846FFF7EAFB8C20FFF7E7FB00202C
:1017EC00FFF7E4FB0020FFF7E1FB0320FFF7DEFB34
:1017FC008C20FFF7DBFB0020FFF7D8FB0020FFF766
:10180C00D5FB0020FFF7D2FB3320FFF7CFFB3320B3
:10181C00FFF7CCFB00233B710223FB703B79002BC1
:10182C0001D0102200E0002297F9033003F00303EB
:10183C005BB213435BB2BB70E220FFF795FBBB7846
:10184C001846FFF7B3FB3320FFF7B0FB3320FFF74D
:10185C00ADFB3320FFF7AAFB3320FFF7A7FBC92012
:10186C00FFF7A4FB3C20FFF7A1FB0020FFF79EFB3A
:10187C000020FFF79BFBCA20FFF798FB3C20FFF7EB
:10188C0095FB0020FFF792FB0020FFF78FFB002059
:10189C00FFF78CFBE320FFF767FB0020FFF786FBCD
:1018AC000020FFF783FB3320FFF780FB3320FFF78B
:1018BC007DFBE420FFF758FB4420FFF777FB442027
:1018CC00FFF774FBE520FFF74FFB0520FFF76EFBDE
:1018DC00CD20FFF76BFB8220FFF768FB8220FFF720
:1018EC0065FB0120FFF762FBC920FFF75FFB82203D
:1018FC00FFF75CFB8220FFF759FB0720FFF756FB35
:10190C00CF20FFF753FB8220FFF750FB8220FFF71D
:10191C004DFB0320FFF74AFBCB20FFF747FB822050
:10192C00FFF744FB8220FFF741FBE620FFF71CFB8F
:10193C000020FFF73BFB0020FFF738FB3320FFF7BD
:10194C0035FB3320FFF732FBE720FFF70DFB44207C
:10195C00FFF72CFB4420FFF729FBE820FFF704FBE3
:10196C000620FFF723FBCE20FFF720FB8220FFF79A
:10197C001DFB8220FFF71AFB0220FFF717FBCA2082
:10198C00FFF714FB8220FFF711FB8220FFF70EFB01
:10199C000820FFF70BFBD020FFF708FB8220FFF796
:1019AC0005FB8220FFF702FB0420FFF7FFFACC2097
:1019BC00FFF7FCFA8220FFF7F9FA8220FFF7F6FA1C
:1019CC00EB20FFF7D1FA0820FFF7F0FA0120FFF720
:1019DC00EDFAE420FFF7EAFAE420FFF7E7FA8820B3
:1019EC00FFF7E4FA0020FFF7E1FA4020FFF7DEFAF8
:1019FC00EC20FFF7B9FA0020FFF7D8FA0020FFF728
:101A0C00D5FA0020FFF7D2FAED20FFF7ADFAFF2050
:101A1C00FFF7CCFAF020FFF7C9FA0720FFF7C6FA58
:101A2C006520FFF7C3FA4F20FFF7C0FAFC20FFF741
:101A3C00BDFAC220FFF7BAFA2F20FFF7B7FAF2204F
:101A4C00FFF7B4FA2C20FFF7B1FACF20FFF7AEFA6C
:101A5C00F420FFF7ABFA5620FFF7A8FA7020FFF737
:101A6C00A5FA0F20FFF7A2FAFF20FFF79FFAEF204D
:101A7C00FFF77AFA1020FFF799FA0D20FFF796FA84
:101A8C000420FFF793FA0820FFF790FA3F20FFF7A6
:101A9C008DFA1F20FFF78AFAFF20FFF765FA7720EF
:101AAC00FFF784FA0120FFF781FA0020FFF77EFA96
:101ABC000020FFF77BFA0020FFF778FA1120FFF7E0
:101ACC0053FA782002F032FF3520FFF74DFA002050
:101ADC00FFF76CFA3A20FFF747FA5520FFF766FA42
:101AEC002920FFF741FA00BF0837BD4680BD000032
:101AFC0080B500AF00224FF48061084803F081FEEE
:101B0C00642002F013FF01224FF48061034803F0BC
:101B1C0078FE642002F00AFF00BF80BD000C01407B
:101B2C0080B584B000AF0346FB710023FB73002229
:101B3C0010210D4803F065FE07F10F014FF0FF3344
:101B4C0001220A4804F026FBF91D4FF0FF33012255
:101B5C00064804F01FFB01221021034803F051FE3C
:101B6C0000BF1037BD4680BD00080140C0050020F5
:101B7C0080B584B000AF0346FB718023FB73002259
:101B8C0010210D4803F03DFE07F10F014FF0FF331C
:101B9C0001220A4804F0FEFAF91D4FF0FF3301222E
:101BAC00064804F0F7FA01221021034803F029FE3D
:101BBC0000BF1037BD4680BD00080140C0050020A5
:101BCC0080B582B000AFC023FB710023BB71002233
:101BDC0010210D4803F015FEF91D4FF0FF330122C3
:101BEC000A4804F0D7FAB91D4FF0FF330122074819
:101BFC0004F00CFC01221021034803F002FEBB7917
:101C0C0018460837BD4680BD00080140C0050020BD
:101C1C0080B582B000AF03460A46FB711346BB7118
:101C2C00FB791846FFF77CFFBB791846FFF7A0FF3E
:101C3C0000BF0837BD4680BD80B500AF00F0C2FEC6
:101C4C000A2002F073FE00F06FFB642002F06EFEBF
:101C5C0000F0ADFC052002F069FE00F00BFD6420E5
:101C6C0002F064FE00F02EFE052002F05FFE4FF441
:101C7C0070714FF4C87000F041FD052002F056FE63
:101C8C00394B1B689BB2184600F07FFD052002F013
:101C9C004DFE364B1B689BB2184600F099FD052093
:101CAC0002F044FE324B1B689BB2184600F0ACFDB0
:101CBC00052002F03BFE2F4B1B689BB2184600F030
:101CCC00BFFD052002F032FE2B4B1B689BB2184661
:101CDC0000F0D0FD052002F029FE284B1B689BB2BA
:101CEC00184600F0DBFD052002F020FE00F0DBFEC4
:101CFC00052002F01BFE00F0EDFB052002F016FEA5
:101D0C0000F08EFE052002F011FE00F099FE052079
:101D1C0002F00CFE00F0D4FA052002F007FE00F0F1
:101D2C00B2FE052002F002FE00F0FFFE052002F0DC
:101D3C00FDFD00F026FF052002F0F8FD00F0C7FEC7
:101D4C00052002F0F3FD00F0D2FE052002F0EEFDBE
:101D5C0000F04AFE052002F0E9FD00F099FA00F0CF
:101D6C00C1F900BF80BD00BF1C0000202000002076
:101D7C002400002010000020140000201800002077
:101D8C0090B583B000AF0446084611461A46234668
:101D9C00FB800346BB800B467B8013463B80682050
:101DAC00FFF7BEFEFB88DBB21846FFF7E1FE6920A9
:101DBC00FFF7B6FEFB881B0A9BB2DBB203F01F03D6
:101DCC00DBB21846FFF7D4FE6A20FFF7A9FEBB88EA
:101DDC00DBB21846FFF7CCFE6B20FFF7A1FEBB88E9
:101DEC001B0A9BB2DBB203F01F03DBB21846FFF7F2
:101DFC00BFFE6C20FFF794FE7B88DBB21846FFF722
:101E0C00B7FE6D20FFF78CFE7B881B0A9BB2DBB202
:101E1C0003F01F03DBB21846FFF7AAFE6E20FFF794
:101E2C007FFE3B88DBB21846FFF7A2FE6F20FFF760
:101E3C0077FE3B881B0A9BB2DBB203F01F03DBB2BD
:101E4C001846FFF795FED220FFF76AFE3B8BDBB2FC
:101E5C001846FFF78DFED320FFF762FEBB8BDBB27B
:101E6C001846FFF785FED420FFF75AFE3B8CDBB2F9
:101E7C001846FFF77DFE6720FFF752FE8020FFF724
:101E8C0077FE00BF0C37BD4690BD0000B0B592B0D8
:101E9C0000AF1B4B3C1D1D460FCD0FC40FCD0FC407
:101EAC000FCD0FC495E80F0084E80F000320FFF757
:101EBC0037FE002387F8463097F846301846FFF770
:101ECC0057FE002387F8473010E00420FFF728FE68
:101EDC0097F8473048333B4413F8443C1846FFF717
:101EEC0047FE97F84730013387F8473097F847306B
:101EFC003F2BEAD900BF00BF4837BD46B0BD00BF7D
:101F0C00A48B0008B0B58EB000AF1A4B3C1D1D461B
:101F1C000FCD0FC40FCD0FC495E80F0084E80F0050
:101F2C000320FFF7FDFD002387F8363097F8363095
:101F3C001846FFF71DFE002387F8373010E0042009
:101F4C00FFF7EEFD97F8373038333B4413F8343C49
:101F5C001846FFF70DFE97F83730013387F8373006
:101F6C0097F837302F2BEAD900BF00BF3837BD4662
:101F7C00B0BD00BFE48B000890B585B000AF04463F
:101F8C00084611461A462346FB710346BB710B46A5
:101F9C007B7113463B710023FB730023BB7397F9D2
:101FAC0007309B015AB297F90F3013435BB2FB73A6
:101FBC0097F906301B015BB203F030035AB297F964
:101FCC000F3013435BB2FB7397F9053003F0030337
:101FDC005AB297F90F3013435BB2FB73CC20FFF767
:101FEC009FFDFB7B1846FFF7C3FD97F90430DB011F
:101FFC005AB297F90E3013435BB2BB7397F920308A
:10200C009B015AB297F90E3013435BB2BB7397F92D
:10201C0024301B015AB297F90E3013435BB2BB73D9
:10202C0097F928309B005BB203F00C035AB297F976
:10203C000E3013435BB2BB7397F92C3003F00303E0
:10204C005AB297F90E3013435BB2BB73CD20FFF736
:10205C0067FDBB7B1846FFF78BFDD020FFF760FDBB
:10206C0097F8303003F01F03DBB21846FFF780FD02
:10207C00D120FFF755FD97F8343003F03F03DBB266
:10208C001846FFF775FD6320FFF74AFD3B8FDBB267
:10209C001846FFF76DFD6420FFF742FD3B8F1B0ACE
:1020AC009BB2DBB203F01F03DBB21846FFF760FDF7
:1020BC006520FFF735FDBB8FDBB21846FFF758FDE7
:1020CC006620FFF72DFDBB8F1B0A9BB2DBB203F022
:1020DC001F03DBB21846FFF74BFD00BF1437BD469C
:1020EC0090BD000080B58AB008AF08237B80102318
:1020FC003B800021002000F08EF800230793002382
:10210C0006930023059300230493012303930123D7
:10211C00029301230193002300930023002200214A
:10212C000020FFF729FF0023FB803BE00023BB804E
:10213C0030E06320FFF7F4FCBB88DBB21846FFF7F6
:10214C0017FD6420FFF7ECFCBB881B0A9BB2DBB2CB
:10215C0003F01F03DBB21846FFF70AFD6520FFF7FB
:10216C00DFFCFB88DBB21846FFF702FD6620FFF7A9
:10217C00D7FCFB881B0A9BB2DBB203F01F03DBB25C
:10218C001846FFF7F5FC0C4800F018F8BA883B88A5
:10219C001344BB80BB88B3F5C87FCAD3FA887B884D
:1021AC001344FB80FB88B3F5707FBFD300BF00BF27
:1021BC000837BD4680BD00BF148C000880B584B0C4
:1021CC0000AF78601EE0BA20FFF7AAFCFFF7F8FC1E
:1021DC000346FB7306E0BA20FFF7A2FCFFF7F0FC06
:1021EC000346FB73FB7B03F04003002BF3D104206D
:1021FC00FFF796FC7B681B781846FFF7B9FC7B68E9
:10220C0001337B607B681B78002BDCD100BF00BFE7
:10221C001037BD4680BD80B582B000AF78603960A4
:10222C00D220FFF77DFC7B681B0CDBB21846FFF756
:10223C009FFCD320FFF774FC7B681B0ADBB21846AB
:10224C00FFF796FCD420FFF76BFC7B68DBB21846DB
:10225C00FFF78EFCD520FFF763FC3B681B0CDBB251
:10226C001846FFF785FCD620FFF75AFC3B681B0A83
:10227C00DBB21846FFF77CFCD720FFF751FC3B681C
:10228C00DBB21846FFF774FC00BF0837BD4680BDB3
:10229C0080B582B000AF0023FB71FB7943F00403DF
:1022AC00FB71FB7923F00303FB710320FFF738FC70
:1022BC00FB791846FFF75CFC00BF0837BD4680BDB4
:1022CC0080B500AF5620FFF72BFC0020FFF750FC29
:1022DC005720FFF725FC0020FFF74AFC5820FFF79A
:1022EC001FFC0020FFF744FC5920FFF719FC0020CD
:1022FC00FFF73EFC5A20FFF713FC8F20FFF738FC4A
:10230C005B20FFF70DFC0120FFF732FC5C20FFF790
:10231C0007FCBF20FFF72CFC5D20FFF701FC03201E
:10232C00FFF726FC00BF80BD80B588B000AF614BC5
:10233C001A68614B1B681A44604B1B68134403F505
:10234C00C8735F4A11685F4A126811445E4A12688A
:10235C000A4402F5707202FB03F35C4A126802FB3A
:10236C0003F37B617B6903F5F42303F59073584AFF
:10237C00A2FB03239B0C7B617B69FB837B699BB278
:10238C005B00BB837B699BB25B007B83FB8B412B2C
:10239C0001D94123FB83BB8B642B01D96423BB8301
:1023AC007B8B642B01D964237B8302237B820223E6
:1023BC003B820223FB810523BB8105237B81052303
:1023CC003B81FB8BFB807B8BBB80BB8B7B8005209D
:1023DC00FFF7A6FB7B8A5BB29B015AB2BB895BB24F
:1023EC005B005BB213435AB2FB881B0A9BB25BB215
:1023FC0003F001035BB213435BB2DBB21846FFF789
:10240C00B7FB0620FFF78CFBFB88DBB21846FFF707
:10241C00AFFB0720FFF784FBFB895BB29B015AB231
:10242C003B895BB25B005BB213435AB27B881B0ADD
:10243C009BB25BB203F001035BB213435BB2DBB242
:10244C001846FFF795FB0820FFF76AFB7B88DBB289
:10245C001846FFF78DFB0920FFF762FB3B8A5BB246
:10246C009B015AB27B895BB25B005BB213435AB2DD
:10247C00BB881B0A9BB25BB203F001035BB2134334
:10248C005BB2DBB21846FFF773FB0A20FFF748FB81
:10249C00BB88DBB21846FFF76BFB0020FFF740FB55
:1024AC008020FFF765FB0A2002F040FA00BF2037BE
:1024BC00BD4680BD1C000020200000202400002010
:1024CC00100000201400002018000020280000201C
:1024DC0083DE1B4380B582B000AF0023FB71FB7918
:1024EC0043F00403FB711020FFF71AFBFB7918462D
:1024FC00FFF73EFB2A20FFF713FB0020FFF738FB0A
:10250C002B20FFF70DFB0020FFF732FB2C20FFF7F1
:10251C0007FB0020FFF72CFB2D20FFF701FB002011
:10252C00FFF726FB2E20FFF7FBFA6420FFF720FBBA
:10253C002F20FFF7F5FA0020FFF71AFB3020FFF7EA
:10254C00EFFA6420FFF714FB3120FFF7E9FA0020C3
:10255C00FFF70EFB3220FFF7E3FA0020FFF708FB32
:10256C003320FFF7DDFA0020FFF702FB3420FFF7E2
:10257C00D7FA0020FFF7FCFA3520FFF7D1FA00203C
:10258C00FFF7F6FA0023BB71BB7943F00403BB7170
:10259C00BB7943F00103BB711120FFF7C1FABB7982
:1025AC001846FFF7E5FA00BF0837BD4680BD80B579
:1025BC0082B000AF0023FB71E420FFF7B1FAFB7986
:1025CC0043F00403FB71FB791846FFF7D1FAE020C6
:1025DC00FFF7A6FA2920FFF7CBFAE120FFF7A0FAC4
:1025EC000320FFF7C5FA9C23BB80BB88023BBB8052
:1025FC00E220FFF795FABB88DBB21846FFF7B8FA72
:10260C00E320FFF78DFABB881B0A9BB2DBB218469E
:10261C00FFF7AEFAE420FFF783FA0120FFF7A8FAE0
:10262C00E420FFF77DFAFB7923F00403FB71FB79BF
:10263C001846FFF79DFA012002F078F900F004F833
:10264C0000BF0837BD4680BD80B582B000AFE42026
:10265C00FFF766FAFFF7B4FA0346FB71FB7903F058
:10266C000103002BF3D00A2002F060F900BF0837F9
:10267C00BD4680BD80B582B000AF0023FB71FB79F5
:10268C0043F00803FB71FB7943F04003FB7101201D
:10269C00FFF746FAFB791846FFF76AFA0023FB713D
:1026AC000220FFF73DFAFB791846FFF761FA002389
:1026BC00FB710320FFF734FAFB791846FFF758FA41
:1026CC000023FB711220FFF72BFAFB791846FFF75A
:1026DC004FFA0023FB71FB7943F00203FB71FB798A
:1026EC0043F00103FB711320FFF71AFAFB7918462C
:1026FC00FFF73EFA00BF0837BD4680BD80B584B0F9
:10270C0000AF03460A46FB801346BB80FB88DB0800
:10271C009BB2013BFB810023BB811420FFF700FA25
:10272C00FB89DBB21846FFF723FA1520FFF7F8F9FF
:10273C00BB89DBB203F00F03DBB21846FFF718FAC4
:10274C00BB88B3F5806F02D94FF48063BB80BB8824
:10275C00002B01D10123BB80BB88013B7B811A205C
:10276C00FFF7DEF97B89DBB21846FFF701FA1B2075
:10277C00FFF7D6F97B891B0A9BB2DBB21846FFF731
:10278C00F7F900BF1037BD4680BD80B584B000AFEF
:10279C000346FB80FB88DB089BB2013BFB810023DB
:1027AC00BB811620FFF7BCF9FB89DBB21846FFF79B
:1027BC00DFF91720FFF7B4F9BB89DBB203F00F0385
:1027CC00DBB21846FFF7D4F900BF1037BD4680BD09
:1027DC0080B584B000AF0346FB80FB88072B02D882
:1027EC000023FB8104E0FB88DB089BB2013BFB81EF
:1027FC001820FFF795F9FB89DBB21846FFF7B8F9FB
:10280C0000BF1037BD4680BD80B584B000AF034615
:10281C00FB80FB88072B02D80023FB8104E0FB889C
:10282C00DB089BB2013BFB811920FFF779F9FB898F
:10283C00DBB21846FFF79CF900BF1037BD4680BDD0
:10284C0080B584B000AF0346FB80FB88DBB2013B54
:10285C00FB731C20FFF764F9FB7B1846FFF788F924
:10286C001D20FFF75DF90020FFF782F900BF10373C
:10287C00BD4680BD80B584B000AF0346FB80FB88AD
:10288C00DBB2013BFB731E20FFF74AF9FB7B1846BA
:10289C00FFF76EF900BF1037BD4680BD80B584B020
:1028AC0000AF0346FB80FB88DBB2013BFB731F20B0
:1028BC00FFF736F9FB7B1846FFF75AF900BF1037C4
:1028CC00BD4680BD80B582B000AF0023FB71FB79A3
:1028DC0043F04003FB71FB7943F00803FB711220BA
:1028EC00FFF71EF9FB791846FFF742F900BF0837CE
:1028FC00BD4680BD80B582B000AF0023FB71FB7973
:10290C0023F04003FB711220FFF70AF9FB791846FC
:10291C00FFF72EF900BF0837BD4680BD80B584B0E7
:10292C0000AF0346FB71FB79642B01D96423FB7167
:10293C008420FFF7F5F81020FFF71AF98520FFF730
:10294C00EFF88820FFF714F9FA7913461B029B1A4B
:10295C001B4A82FB03125211DB17D31AFB81FF2394
:10296C00BB818C20FFF7DCF8FB89DBB21846FFF744
:10297C00FFF88D20FFF7D4F8FB891B0A9BB2DBB262
:10298C001846FFF7F5F88E20FFF7CAF8BB89DBB2C3
:10299C001846FFF7EDF88F20FFF7C2F8BB891B0A2A
:1029AC009BB2DBB21846FFF7E3F88620FFF7B8F8C6
:1029BC003020FFF7DDF800BF1037BD4680BD00BFEB
:1029CC001F85EB5180B582B000AF0023FB71FB7902
:1029DC0043F00103FB71FB7919460020FFF718F94E
:1029EC0000BF0837BD4680BD80B500AF2020FFF783
:1029FC0097F80020FFF7BCF82120FFF791F8002092
:102A0C00FFF7B6F82220FFF78BF80020FFF7B0F89D
:102A1C002320FFF785F80020FFF7AAF800BF80BD40
:102A2C0080B500AF2420FFF77BF89020FFF7A0F8CB
:102A3C002520FFF775F80120FFF79AF800BF80BD3D
:102A4C0080B582B000AF0023FB80FB88DBB223F0A3
:102A5C0003037B71FB881B0A9BB2DBB203F01F03E1
:102A6C003B712620FFF75CF87B791846FFF780F85E
:102A7C002720FFF755F83B791846FFF779F800BF88
:102A8C000837BD4680BD80B500AF2820FFF748F859
:102A9C000020FFF76DF82920FFF742F80020FFF720
:102AAC0067F800BF80BD80B582B000AF0023FB711A
:102ABC00FB7943F00103FB715E20FFF731F8FB79E2
:102ACC001846FFF755F800BF0837BD4680BD80B5E6
:102ADC0000AF5F20FFF724F80020FFF749F86020D3
:102AEC00FFF71EF80020FFF743F800BF80BD80B54C
:102AFC0082B000AF0023FB806120FFF711F8FB8848
:102B0C00DBB21846FFF734F86220FFF709F8FB88B0
:102B1C001B0A9BB2DBB203F01F03DBB21846FFF7B4
:102B2C0027F800BF0837BD4680BD80B582B000AF26
:102B3C0000237B605020FEF7F3FF7B68DBB2184666
:102B4C00FFF716F85120FEF7EBFF7B681B0ADBB290
:102B5C001846FFF70DF85220FEF7E2FF7B681B0CBE
:102B6C00DBB21846FFF704F85320FEF7D9FF7B6859
:102B7C001B0EDBB21846FEF7FBFF00BF0837BD4645
:102B8C0080BD80B500AF5420FEF7CAFF9020FEF741
:102B9C00EFFF5520FEF7C4FF0120FEF7E9FF00BF51
:102BAC0080BD000080B483B000AF0346FB7197F981
:102BBC000730002B0BDBFB7903F01F02064997F95A
:102BCC0007305B09012000FA02F241F8232000BF14
:102BDC000C37BD4680BC704700E100E080B500AF0B
:102BEC00124BDB69114A43F00103D3614FF0804370
:102BFC0041F61F429A624FF0804341F28732DA620B
:102C0C004FF08043DB684FF0804243F00103D36008
:102C1C004FF080431B684FF0804243F00103136078
:102C2C001C20FFF7BFFF00BF80BD00BF001002409B
:102C3C0080B400AF4FF080431B6903F00103002BFD
:102C4C000AD04FF080431B694FF0804223F0010300
:102C5C001361034B01221A7000BFBD4680BC704744
:102C6C00CC00002080B483B000AF0346FB80FA8810
:102C7C0013469B0013445B005A1E4FF08043DA62EC
:102C8C004FF0804301225A6100BF0C37BD4680BC17
:102C9C007047000080B582B000AF104B5B690F4AE3
:102CAC0043F0010353610D4B5B6903F001037B603F
:102CBC007B68002200210D2001F033FF0D2001F074
:102CCC004CFF002200210E2001F02BFF0E2001F002
:102CDC0044FF00BF0837BD4680BD00BF0010024056
:102CEC0080B588B000AF07F1100300221A605A605B
:102CFC009A60DA60684B9B69674A43F010039361F2
:102D0C00654B9B6903F01003FB60FB68624B9B698E
:102D1C00614A43F0200393615F4B9B6903F02003EE
:102D2C00BB60BB685C4B9B695B4A43F004039361DB
:102D3C00594B9B6903F004037B607B68564B9B6982
:102D4C00554A43F008039361534B9B6903F0080306
:102D5C003B603B6800224FF40051504802F051FD9B
:102D6C004FF400533B6101237B610023BB610223C1
:102D7C00FB6107F110031946484802F0A7FB4FF41A
:102D8C0080633B6101237B610023BB610223FB61F8
:102D9C0007F110031946424802F098FB4FF4006308
:102DAC003B61404B7B610023BB6107F1100319466B
:102DBC003B4802F08BFB08233B6101237B61012321
:102DCC00BB610323FB6107F110031946344802F081
:102DDC007DFB10233B6101237B610023BB6103233B
:102DEC00FB6107F1100319462D4802F06FFB2023FD
:102DFC003B6101237B610023BB610323FB6107F172
:102E0C0010031946264802F061FB01233B610023A5
:102E1C007B610123BB610223FB6107F1100319469F
:102E2C001F4802F053FB02233B6100237B6101230B
:102E3C00BB610223FB6107F110031946184802F02D
:102E4C0045FB4FF400633B6100237B610023BB61B6
:102E5C000223FB6107F110031946114802F036FBFF
:102E6C004FF480533B6100237B610023BB61022341
:102E7C00FB6107F110031946094802F027FB0022F9
:102E8C000021282001F04DFE282001F066FE00BF35
:102E9C002037BD4680BD00BF00100240001001402D
:102EAC00000C01400000111080B483B000AF034649
:102EBC00FB7197F907305B005BB223F055035AB2F4
:102ECC00FB795B105BB203F055035BB213435BB24F
:102EDC00FB7197F907309B005BB223F033035AB2B6
:102EEC00FB799B105BB203F033035BB213435BB211
:102EFC00FB71FB791B09DBB25AB297F907301B0146
:102F0C005BB213435BB2DBB218460C37BD4680BCD8
:102F1C007047000080B584B000AF78600023FB6080
:102F2C0014E0FB68DB00114A134407221946786849
:102F3C0004F0F2FB0346002B05D10C4AFB68DB00C6
:102F4C001344DB790EE0FB680133FB60FB68712BEB
:102F5C00E7D9074B7A681068186091889279998044
:102F6C009A713F2318461037BD4680BD788E0008F5
:102F7C00D802002080B584B000AF0023FB601FE1B5
:102F8C00FA6813469B001344934AD35CFB72FA68AD
:102F9C0013469B00134401338F4AD35CBB72FA680F
:102FAC0013469B00134402338B4AD35C7B72FA6842
:102FBC0013469B0013440333874AD35C3B72FA6875
:102FCC0013469B0013440433834AD35CFB7197F97B
:102FDC000A301B015AB27B7A1B115BB203F0080357
:102FEC005BB213435BB2DBB21846FFF75DFF0346DF
:102FFC0018467A4AFB6813441B78194600F01F03E5
:10300C00D8B2774A0B46DB005B1A134402461A709F
:10301C0097F90B30DB015AB2BB7A5B105BB203F051
:10302C0078035BB213435BB2DBB21846FFF73CFF8D
:10303C0003461846694AFB6813441B78194600F08E
:10304C001F03D8B2664A0B46DB005B1A13440133EC
:10305C0002461A70FB7A9B00DBB223F00703DBB24B
:10306C001846FFF721FF034618465C4AFB681344D9
:10307C001B78194600F01F03D8B2594A0B46DB00E7
:10308C005B1A1344023302461A70FB7ADB105BB2F4
:10309C0003F018035AB297F907305B015BB2134384
:1030AC005BB2DBB21846FFF7FFFE034618464B4AED
:1030BC00FB6813441B78194600F01F03D8B2484A2A
:1030CC000B46DB005B1A1344033302461A70FB7980
:1030DC0023F00703DBB21846FFF7E6FE034618465B
:1030EC003E4AFB6813441B78194600F01F03D8B204
:1030FC003B4A0B46DB005B1A1344043302461A703E
:10310C003B7ADB00DBB21846FFF7CEFE03461846CF
:10311C00324AFB6813441B78194600F01F03D8B2DF
:10312C002F4A0B46DB005B1A1344053302461A7018
:10313C0097F909309B015AB23B7A9B105BB203F0B2
:10314C0038035BB213435BB2DBB21846FFF7ACFE3D
:10315C0003461846214AFB6813441B78194600F0B5
:10316C001F03D8B21E4A0B46DB005B1A134406330E
:10317C0002461A707B7A03F04003002B14BF012324
:10318C000023D9B2154AFB6813441B781A46154B19
:10319C009954FB68242B10DC104AFB6813441B78F1
:1031AC001A46104B9B5C002B14BF01230023D9B291
:1031BC000D4AFB6813440A461A70FB680133FB6026
:1031CC00FB682E2B7FF7DCAE084B00229A7400BFF5
:1031DC001037BD4680BD00BFE0020020488E0008BD
:1031EC00CC03002018050020B00200209005002020
:1031FC0080B400AF274B1A7A274B5A70254BDA79DB
:10320C00254B9A70234B9A79234BDA70214B5A79C0
:10321C00214B1A711F4B1A791F4B5A711D4BDA78BF
:10322C001D4B9A711B4B9A781B4BDA71194B5A78C0
:10323C00194B1A72174B1A78174B5A72154B93F885
:10324C002320154B9A72134B93F82220124BDA72EF
:10325C00104B93F82120104B1A730E4B93F820202F
:10326C000D4B5A730B4BDA7F0B4B9A73094B9A7FAE
:10327C00094BDA73074B5A7F074B1A74054B1A7FAD
:10328C00054B5A74034BDA7E034B9A7400BFBD4650
:10329C0080BC7047B00200209C020020F0B591B0B9
:1032AC0008AF80220021974804F046FA80220021C2
:1032BC00954804F041FA80220021944804F03CFA2D
:1032CC00FFF796FF0023FB618BE0FA691346DB00E6
:1032DC009B1A8F4A1344FB60F868FFF71BFE0346EA
:1032EC00FB72FB69002B03D18A4AFB7A537075E0A1
:1032FC00FB69012B03D1874AFB7A93706EE0FB6963
:10330C00022B03D1834AFB7AD37067E0FB69032B52
:10331C0003D1804AFB7A137160E0FB69042B03D163
:10332C007C4AFB7A537159E0FB69052B03D1794A2E
:10333C00FB7A937152E0FB69062B03D1754AFB7A39
:10334C00D3714BE0FB69072B03D1724AFB7A1372E2
:10335C0044E0FB69082B03D16E4AFB7A53723DE0C3
:10336C00FB69092B03D16B4AFB7A937236E0FB693C
:10337C000A2B03D1674AFB7AD3722FE0FB690B2B24
:10338C0003D1644AFB7A137328E0FB690C2B03D13D
:10339C00604AFB7A537321E0FB690D2B03D15D4A24
:1033AC00FB7A93731AE0FB690E2B03D1594AFB7A13
:1033BC00D37313E0FB690F2B03D1564AFB7A1374BA
:1033CC000CE0FB69102B03D1524AFB7A537405E0D5
:1033DC00FB69112B02D14F4AFB7A9374FB690133C1
:1033EC00FB61FB69112B7FF770AF4B4B00229A747A
:1033FC001223BB612AE1BA691346DB009B1A444ACB
:10340C0013447B617869FFF785FD0346FB74BB6948
:10341C00122B03D13F4AFB7CD374DEE0BB69132B28
:10342C0003D13C4AFB7C1375D7E0BB69142B03D149
:10343C00384AFB7C5375D0E0BB69152B03D1354A58
:10344C00FB7C9375C9E0BB69162B03D1314AFB7C1D
:10345C00D375C2E0BB69172B03D12E4AFB7C1376C4
:10346C00BBE0BB69182B03D12A4AFB7C5376B4E032
:10347C00BB69192B03D1274AFB7C9376ADE0BB6962
:10348C001A2B03D1234AFB7CD376A6E0BB691B2BFA
:10349C0003D1204AFB7C13779FE0BB691C2B03D123
:1034AC001C4AFB7C537798E0BB691D2B03D1194A4E
:1034BC00FB7C937791E0BB691E2B03D1154AFB7CF7
:1034CC00D3778AE0BB691F2B04D1124AFB7C82F8AC
:1034DC00203082E0BB69202B04D10E4AFB7C82F8A1
:1034EC0021307AE0BB69212B04D10A4AFB7C82F89B
:1034FC00223072E0BB69222B10D1064AFB7C82F889
:10350C0023306AE0EC0000206C010020EC0100206C
:10351C00CC0300206C020020D0000020BB69232BC0
:10352C0004D1504AFB7C82F8243056E0BB69242B32
:10353C0004D14C4AFB7C82F825304EE0BB69252B2C
:10354C0004D1484AFB7C82F8263046E0BB69262B26
:10355C0004D1444AFB7C82F827303EE0BB69272B20
:10356C0004D1404AFB7C82F8283036E0BB69282B1A
:10357C0004D13C4AFB7C82F829302EE0BB69292B14
:10358C0004D1384AFB7C82F82A3026E0BB692A2B0E
:10359C0004D1344AFB7C82F82B301EE0BB692B2B08
:1035AC0004D1304AFB7C82F82C3016E0BB692C2B02
:1035BC0004D12C4AFB7C82F82D300EE0BB692D2BFC
:1035CC0004D1284AFB7C82F82E3006E0BB692E2BF6
:1035DC0003D1244AFB7C82F82F302348FCF79AFD58
:1035EC000346214A9C182048FCF794FD0346C3F17E
:1035FC0080017B691B781A467B6901331B7818465E
:10360C007B6902331B781D467B6903331B781E468E
:10361C007B6904331B787B607B6905331B783B60CB
:10362C007B6906331B780693D7F800C0CDF814C01D
:10363C007B6804930396029501900092BB690B4A38
:10364C00204604F005F8BB690133BB61BB692E2B26
:10365C007FF7D1AE064B00225A7700BF2437BD4608
:10366C00F0BD00BF6C0200206C010020188C00081B
:10367C00D0000020F0B5F7B008AF01F0F5F800F07D
:10368C0067FEFFF72DFBFFF705FB00F0ABFE00F02C
:10369C00DFFEFFF7A3FA012208219F4802F0B1F8E0
:1036AC00002210219C4802F0ACF801219A4802F04B
:1036BC0091F80346012B07D1984B6FF07F421A60AB
:1036CC00974B984A1A6006E0944B964A1A60944BB2
:1036DC006FF07F421A6002218F4802F07BF803469C
:1036EC00012B04D1904B4FF47F421A6003E08E4BB8
:1036FC004FF6FF721A608D4B1B78002B04D04FF4E1
:10370C0000518B4802F095F8FEF7F2F94FF47A70FD
:10371C0001F00CF9642001F009F9FEF78DFA0A208A
:10372C0001F004F92320FFF79DFA052001F0FEF8C3
:10373C006420FFF7F3F8FEF7D5FC4FF400617D48E9
:10374C0002F048F8034687F8B73197F8B731002BE9
:10375C0003D1794B01221A7002E0774B00221A70C8
:10376C00764800F09BFD0346754A1360754800F0DF
:10377C0095FD0346744A1360744800F08FFD0346B0
:10378C00734A1360734800F089FD0346724A136054
:10379C00724800F083FD0346714A1360714800F0D3
:1037AC007DFD0346704A1360704800F077FD0346B8
:1037BC006F4A13606F49704800F08AFD604B1B68BC
:1037CC006E4A1360604B1B686D4A1360604B1B683C
:1037DC006C4A1360604B1B686B4A1360604B1B6830
:1037EC006A4A1360604B1B68694A1360604B1B6824
:1037FC00684A13605F49684804F01AF8504B1B681C
:10380C00042B03D94E4B1B68322B50D9634B1B68CE
:10381C004B4A1360624B1B684B4A1360614B1B682D
:10382C004B4A1360604B1B684B4A13605F4B1B6821
:10383C004B4A13605E4B1B684B4A13605D4B1B6815
:10384C004B4A13605C494B4803F0F2FF3B4800F0D5
:10385C0053FD3B4B1B681946384800F0CFFC3A4BE4
:10386C001B681946374800F0C9FC394B1B681946D0
:10387C00364800F0C3FC384B1B681946354800F03D
:10388C00BDFC374B1B681946344800F0B7FC364B6F
:10389C001B681946334800F0B1FC354B1B681946C0
:1038AC00324800F0ABFC3349334800F0CFFC244BDA
:1038BC001B683A4A1360244B1B68394A1360244B2B
:1038CC001B68384A1360244B1B68374A1360244B1F
:1038DC001B68364A1360244B1B68354A1360244B13
:1038EC001B68344A13602349334803F0A1FF334962
:1038FC003148FCF705FC0346002B02D1FDF7B0FB69
:10390C0067E02F492C48FCF7FBFB0346002B59D1F1
:10391C00FDF72FFE5DE000BF000C01400000002011
:10392C000400002000FFFF0008000020E30000203E
:10393C000010014000080140E500002000FC0008D8
:10394C006C05002004FC00087005002008FC000831
:10395C00740500200CFC00087805002010FC000801
:10396C007C05002014FC00088005002018FC0008D1
:10397C0084050020880500201CFC00084805002058
:10398C004C0500205005002054050020580500204F
:10399C005C0500206005002064050020100000205C
:1039AC0014000020180000201C0000202000002023
:1039BC0024000020280000202C0000204C8C000843
:1039CC00548C00088F4B904A1A6000221A71FDF734
:1039DC0047FB8E4B01221A70FFF7CCFAFFF75EFC07
:1039EC008B4B01221A708B4B1B78DBB2002BF3D064
:1039FC00874B1B78DBB2002BEED0864B00221A7063
:103A0C00834B00221A70844B1B7883F00103DBB2CA
:103A1C00002B00F0DB804FF40051804801F009FFCF
:103A2C00FDF764F9062000F081FFFCF7C1FB0620CE
:103A3C0000F07CFFFCF7ECFE062000F077FFFDF7B2
:103A4C0051F8062000F072FF00230293002301932B
:103A5C000023009340F2BF3340F28F1240F2BF318B
:103A6C000020FEF78DF9002302930023019300231D
:103A7C00009340F2BE3340F28F1240F2BE31002070
:103A8C00FEF77EF900230293002301930023009399
:103A9C0040F2BD3340F28F1240F2BD310020FEF7F0
:103AAC006FF90023029300230193002300934FF43A
:103ABC006F7340F28F124FF46F710020FEF760F9B4
:103ACC0000230293002301930023009340F2BB33A5
:103ADC0040F28F1240F2BB310020FEF751F9002367
:103AEC000293002301930023009340F2BA3340F277
:103AFC008F1240F2BA310020FEF742F900230293F4
:103B0C00002301930023009340F2B93340F28F124B
:103B1C0040F2B9310020FEF733F900230293002361
:103B2C000193002300934FF46E7340F28F124FF405
:103B3C006E710020FEF724F9062000F0F7FE4FF41A
:103B4C000061374801F046FE034687F8B4314FF464
:103B5C008051334801F03EFE034687F8B33197F8A5
:103B6C00B431012B07D197F8B331002B03D12D4B76
:103B7C0000221A7013E397F8B431002B7FF42CAFAA
:103B8C0097F8B331002B7FF427AF97F8B42197F84F
:103B9C00B3319A427FF420AF224B1B7883F00103A0
:103BAC00DBB2002B0ED0204B1B78002B14BF012353
:103BBC000023DBB283F00103DBB203F00103DAB2C2
:103BCC00194B1A70174B01221A7005E74FF400615C
:103BDC00134801F0FFFD034687F8B6314FF48051CE
:103BEC000F4801F0F7FD034687F8B53197F8B63169
:103BFC00012B1DD197F8B531002B19D10B4B00229D
:103C0C001A70CCE22C00002041646146470500206C
:103C1C00CD000020CC000020E50000200010014069
:103C2C0000080140E4000020E3000020E700002031
:103C3C0097F8B631002B7FF4CFAE97F8B531002B47
:103C4C007FF4CAAE97F8B62197F8B5319A427FF453
:103C5C00C3AEAE4B1B7883F00103DBB2002B00F03C
:103C6C009882AB4B1B78002B14BF01230023DBB2D3
:103C7C0083F00103DBB203F00103DAB2A44B1A7038
:103C8C00A44B1B780133A44A127893FBF2F101FB8D
:103C9C0002F29B1ADAB29F4B1A70A04B1B7883F07E
:103CAC000103DBB2002B00F0D5809A4B1B781A462F
:103CBC009B4B53F822309B4A1360964B1B781A4649
:103CCC00994B53F82230994A1360924B1B781A4641
:103CDC00974B53F82230974A13608E4B1B781A4639
:103CEC00954B53F82230954A13608A4B1B781A4631
:103CFC00934B53F82230934A1360864B1B781A4629
:103D0C00914B53F82230914A1360824B1B781A4620
:103D1C008F4B53F822308F4A13607E4B1B781A4618
:103D2C0013469B0013448C4A134419468B4803F0EA
:103D3C007FFD7C4B1B688A4A13607C4B1B68894A4D
:103D4C0013607C4B1B68884A13607C4B1B68874A4A
:103D5C0013607C4B1B68864A13607C4B1B68854A3E
:103D6C0013607C4B1B68844A13607C49834803F0C6
:103D7C005FFDFDF775F9052000F0D8FDFEF7D4FACC
:103D8C00052000F0D3FD794B1B689BB21846FEF75B
:103D9C00FCFC052000F0CAFD754B1B689BB2184655
:103DAC00FEF716FD052000F0C1FD724B1B689BB29F
:103DBC001846FEF729FD052000F0B8FD684B1B687E
:103DCC009BB21846FEF73CFD052000F0AFFD654B9D
:103DDC001B689BB21846FEF74DFD052000F0A6FDB2
:103DEC00614B1B689BB21846FEF758FD052000F08E
:103DFC009DFD634800F080FA4A4B1B6819466048E9
:103E0C0000F0FCF9494B1B6819465E4800F0F6F9C6
:103E1C00484B1B6819465C4800F0F0F9474B1B688F
:103E2C0019465A4800F0EAF9464B1B68194658489F
:103E3C0000F0E4F9454B1B681946564800F0DEF9D2
:103E4C00444B1B681946544800F0D8F94349534871
:103E5C0000F0FCF9062000F069FD00214FF47F40D2
:103E6C00FEF7D9F9002307938C23069304230593BB
:103E7C000123049300230393002302930123019352
:103E8C00002300930023002202210020FEF774F887
:103E9C00434B07F5CE741D460FCD0FC495E80300B8
:103EAC0020600434218007F5CE731846FEF786F99E
:103EBC00062000F03BFD00216FF07F40FEF7ABF9D0
:103ECC0000230793AA230693042305930123049349
:103EDC0000230393002302930123019300230093F7
:103EEC000023002201210020FEF746F807F5DC73C1
:103EFC00A3F5D6732B4A1C4615460FCD0FC40FCD18
:103F0C000FC495E8070084E807004DE0E7000020A7
:103F1C00E6000020E80000200E0000200D0000202C
:103F2C00808D00086C050020988D0008700500201D
:103F3C00B08D000874050020C88D0008780500209D
:103F4C00E08D00087C050020F88D0008800500201D
:103F5C00108E000884050020288E0008880500209B
:103F6C001000002014000020180000201C0000206D
:103F7C002000002024000020280000202C0000201D
:103F8C0000FC000804FC000808FC00080CFC0008FD
:103F9C0010FC000814FC000818FC00081CFC0008AD
:103FAC00BC8C0008D48C000807F10C031846FEF7F3
:103FBC0005F9062000F0BAFC00230793BE230693F4
:103FCC0004230593012304930023039300230293FA
:103FDC0001230193002300930023002201210020E0
:103FEC00FDF7CAFF07F5DC73A3F5A8736C4A1C46F2
:103FFC0015460FCD0FC40FCD0FC40FCD0FC42B68BA
:10400C00236007F168031846FEF7D8F8062000F085
:10401C008DFC00230793FA230693042305930123B5
:10402C0004930023039300230293012301930023A1
:10403C0000930023002201210020FDF79DFF07F5CE
:10404C00DC73A3F5C073574A1C4615460FCD0FC43D
:10405C000FCD0FC495E80F0007C4238002341B0C4E
:10406C00237007F138031846FEF7A8F8062000F075
:10407C005DFC00214C48FEF7CEF8002307934FF46B
:10408C00877306930423059301230493002303935E
:10409C0000230293012301930023009300230022A9
:1040AC0001210020FDF768FF404B1B687B60404BF3
:1040BC001B68404A12684049096840480068404CF7
:1040CC002468404D2D6807F19C06DFF8FCC0CDF844
:1040DC0018C00595049403900291019200937B689B
:1040EC003A4A8021304603F0B3FA07F19C03184694
:1040FC00FEF764F8062000F019FC354B1B7883F0B2
:10410C000103DBB2002B41D000214FF47F40FEF7BE
:10411C0082F8002307934FF49173069304230593BD
:10412C00012304930023039300230293012301939F
:10413C00002300930023002201210020FDF71CFF27
:10414C00244B1B687B60244B1B68244A126824494F
:10415C00096824480068244C2468244D2D6807F510
:10416C008E76DFF88CC0CDF818C0059504940390BA
:10417C000291019200937B681E4A8021304603F025
:10418C0067FA07F58E731846FEF718F8782000F0DA
:10419C00CDFB194B01221A700D4B00221A701BE437
:1041AC00008D0008348D000800FFFF00480500203A
:1041BC004C05002050050020540500205805002017
:1041CC005C05002060050020640500205C8C000864
:1041DC000D0000206C0500207005002074050020E7
:1041EC00780500207C050020800500208405002037
:1041FC00880500208C8C0008E7000020B0B584B046
:10420C0000AF786039607B680E4A934203D37B68B9
:10421C000D4A934201D9012310E000F0C7FF3B681F
:10422C0000221C46154622462B467968022000F0D7
:10423C004DFF0346FB7300F0DFFFFB7B1846103786
:10424C00BD46B0BD00FC0008FFFF0008B0B584B04F
:10425C0000AF786039603868FBF75CFF0346042BCD
:10426C0001D9012315E00023BB603B681B68BB60D0
:10427C0000F09CFFBB6800221C46154622462B46CC
:10428C007968022000F022FF0346FB7300F0B4FFB4
:10429C00FB7B18461037BD46B0BD000080B483B020
:1042AC0000AF78607B68084A934203D37B68074A67
:1042BC00934202D94FF0FF3301E07B681B6818462C
:1042CC000C37BD4680BC704700FC0008FFFF00089F
:1042DC0080B485B000AF786039607B681B68FB6088
:1042EC00FA683B681A603B68043300221A7000BFFE
:1042FC001437BD4680BC704780B588B000AF78607D
:10430C007B68114A934203D37B68104A934201D9CC
:10431C00012314E000F04AFF0023FB607B687B6103
:10432C000123BB6107F1080207F10C031146184683
:10433C0001F024F80346FB7700F05EFFFB7F184684
:10434C002037BD4680BD00BF00FC0008FFFF000801
:10435C0080B590B000AF07F1180328220021184651
:10436C0003F0EAF93B1D00221A605A609A60DA6089
:10437C001A610123BB614FF48033FB6100233B6264
:10438C000123BB6202237B634FF48033BB634FF486
:10439C00E013FB6307F11803184601F085FA034696
:1043AC00002B01D000F019F80F237B600223BB60B7
:1043BC000023FB604FF480633B6100237B613B1D5A
:1043CC000221184601F0F2FC0346002B01D000F04C
:1043DC0004F800BF4037BD4680BD80B400AF72B654
:1043EC0000BFFEE780B500AF174B184A1A60164B9A
:1043FC004FF482725A60144B00229A60124B0022C6
:10440C00DA60114B02221A610F4B01225A610E4BDA
:10441C004FF400729A610C4B1022DA610A4B0022A5
:10442C001A62094B00225A62074B00229A62064B11
:10443C000A22DA62044801F029FE0346002B01D05F
:10444C00FFF7CBFF00BF80BDC0050020003001404E
:10445C0080B500AF164B174A1A60154B00225A60F4
:10446C00134B4FF480629A60114B0022DA60104BB0
:10447C0002221A610E4B01225A610D4B4FF400724D
:10448C009A610B4B00221A62094B00225A62084BAC
:10449C0000229A62064B0A22DA62054801F0F6FD08
:1044AC000346002B01D0FFF798FF00BF80BD00BF73
:1044BC00180600200038004080B58AB000AF786044
:1044CC0007F1180300221A605A609A60DA607B6860
:1044DC001B686B4A934276D16A4B9B69694A43F4D9
:1044EC0080539361674B9B6903F480537B617B69B9
:1044FC00644B9B69634A43F004039361614B9B6972
:10450C0003F004033B613B692023BB610223FB6185
:10451C0000233B6203237B6207F1180319465A48B8
:10452C0000F0D4FF4023BB610023FB6101233B62FD
:10453C0003237B6207F118031946534800F0C6FFAA
:10454C008023BB610223FB6100233B6203237B625C
:10455C0007F1180319464C4800F0B8FF1023BB6153
:10456C000123FB6100233B6203237B6207F11803E9
:10457C001946454800F0AAFF444B454A1A60434B84
:10458C0010225A60414B00229A60404B8022DA6024
:10459C003E4B00221A613D4B00225A613B4B0022DC
:1045AC009A613A4B0022DA61384800F0F1FA03467E
:1045BC00002B01D0FFF711FF7B68344A9A64334A11
:1045CC007B68536257E07B681B68324A934252D136
:1045DC002C4BDB692B4A43F48043D361294BDB69B9
:1045EC0003F48043FB60FB68264B9B69254A43F030
:1045FC0008039361234B9B6903F00803BB60BB6802
:10460C004FF42043BB610023FB6100233B6207F1A5
:10461C0018031946204800F059FF204B204A1A6015
:10462C001E4B00225A601D4B00229A601B4B8022AD
:10463C00DA601A4B00221A61184B00225A61174B90
:10464C0000229A61154B0022DA61144800F0A0FA9E
:10465C000346002B01D0FFF7C0FE7B680F4ADA64DB
:10466C000E4A7B68536200220021242000F059FA84
:10467C00242000F072FA00BF2837BD4680BD00BF71
:10468C00003001400010024000080140700600207C
:10469C003000024000380040000C0140B4060020FD
:1046AC004400024080B485B000AF154B9B69144A9E
:1046BC0043F001039361124B9B6903F00103BB6050
:1046CC00BB680F4BDB690E4A43F08053D3610C4B34
:1046DC00DB6903F080537B607B680A4B5B68FB6093
:1046EC00FB6823F0E063FB60FB6843F00073FB6046
:1046FC00044AFB68536000BF1437BD4680BC70474A
:10470C00001002400000014080B400AFFEE780B40E
:10471C0000AFFEE780B400AFFEE780B400AFFEE769
:10472C0080B400AFFEE780B400AF00BFBD4680BCD4
:10473C00704780B400AF00BFBD4680BC704780B4EA
:10474C0000AF00BFBD4680BC704780B500AF00F025
:10475C00D1F800BF80BD000080B500AF024800F06A
:10476C0081FB00BF80BD00BF7006002080B500AF8C
:10477C00024800F077FB00BF80BD00BFB4060020EC
:10478C0080B500AF024802F0E3FB00BF80BD00BF64
:10479C001806002080B500AF114B1B78002B19D0E8
:1047AC00104802F095FB0F4802F0AEFA0E4B1B6955
:1047BC000D4A43F4804313610B4B1B690A4A23F4E3
:1047CC0080431361074801F061FCEB22074905485F
:1047DC0002F0D0F84FF4006001F044F800BF80BD47
:1047EC00470500201806002000100240E0020020BF
:1047FC0080B586B000AF7860144A154BD31A7B6134
:10480C007B693B61134B1B68002B02D1114B124A85
:10481C001A60104B1A687B6813443A699A4207D2A3
:10482C0002F0DAFF03460C221A604FF0FF3309E066
:10483C00084B1B68FB60074B1A687B681344054ADE
:10484C001360FB6818461837BD4680BD0050002029
:10485C0000040000F80600206808002080B400AFB7
:10486C0000BFBD4680BC704780B500AF084B1B68CD
:10487C00074A43F010031360032000F047F90F20A0
:10488C0000F008F8FFF70EFF0023184680BD00BFAC
:10489C000020024080B582B000AF7860124B1A68DD
:1048AC00124B1B7819464FF47A73B3FBF1F3B2FB3E
:1048BC00F3F3184600F05FF90346002B01D00123F7
:1048CC000EE07B680F2B0AD8002279684FF0FF307E
:1048DC0000F027F9064A7B681360002300E00123EF
:1048EC0018460837BD4680BD340000203C0000202F
:1048FC003800002080B400AF054B1B781A46054BDE
:10490C001B681344034A136000BFBD4680BC70474C
:10491C003C000020FC06002080B400AF024B1B685A
:10492C001846BD4680BC7047FC06002080B584B09C
:10493C0000AF7860FFF7F0FFB8607B68FB60FB6846
:10494C00B3F1FF3F05D00A4B1B781A46FB681344A2
:10495C00FB6000BFFFF7E0FF0246BB68D31AFA68A2
:10496C009A42F7D800BF00BF1037BD4680BD00BFCC
:10497C003C00002080B485B000AF78607B6803F009
:10498C000703FB600C4BDB68BB60BA684FF6FF0398
:10499C001340BB60FB681A02BB68134343F0BF6350
:1049AC0043F40033BB60044ABB68D36000BF1437C8
:1049BC00BD4680BC704700BF00ED00E080B400AF86
:1049CC00044BDB681B0A03F007031846BD4680BC8A
:1049DC00704700BF00ED00E080B483B000AF034629
:1049EC00FB7197F90730002B0BDBFB7903F01F02EF
:1049FC00064997F907305B09012000FA02F241F8E9
:104A0C00232000BF0C37BD4680BC704700E100E09E
:104A1C0080B483B000AF03463960FB7197F907305F
:104A2C00002B0ADB3B68DAB20C4997F9073012010C
:104A3C00D2B20B4483F800230AE03B68DAB208498F
:104A4C00FB7903F00F03043B1201D2B20B441A762C
:104A5C0000BF0C37BD4680BC704700BF00E100E0D2
:104A6C0000ED00E080B489B000AFF860B9607A6006
:104A7C00FB6803F00703FB61FB69C3F10703042B1D
:104A8C0028BF0423BB61FB690433062B02D9FB69E5
:104A9C00033B00E000237B614FF0FF32BB6902FA5D
:104AAC0003F3DA43BB681A407B699A404FF0FF313D
:104ABC007B6901FA03F3D9437B680B401343184617
:104ACC002437BD4680BC704780B582B000AF78609B
:104ADC007B68013BB3F1807F01D301230FE00A4ACD
:104AEC007B68013B53600F214FF0FF30FFF790FFC5
:104AFC00054B00229A60044B07221A6000231846CB
:104B0C000837BD4680BD00BF10E000E080B582B024
:104B1C0000AF78607868FFF72DFF00BF0837BD46FF
:104B2C0080BD80B586B000AF0346B9607A60FB7378
:104B3C0000237B61FFF742FF78617A68B968786976
:104B4C00FFF790FF024697F90F3011461846FFF712
:104B5C005FFF00BF1837BD4680BD80B582B000AF87
:104B6C000346FB7197F907301846FFF735FF00BF76
:104B7C000837BD4680BD80B582B000AF78607868DC
:104B8C00FFF7A2FF034618460837BD4680BD00005C
:104B9C0080B485B000AF78600023FB607B68002B8D
:104BAC0001D1012343E07B681B681A46224B134456
:104BBC00224AA2FB03231B099A007B681A647B68B8
:104BCC001F4ADA637B68022283F821207B681B680A
:104BDC001B68FB60FB6823F47F5323F03003FB60FE
:104BEC007B685A687B689B681A437B68DB681A434E
:104BFC007B681B691A437B685B691A437B689B69FA
:104C0C001A437B68DB691343FA681343FB607B68C8
:104C1C001B68FA681A607B6800229A637B68012221
:104C2C0083F821207B68002283F82020002318467B
:104C3C001437BD4680BC7047F8FFFDBFCDCCCCCC43
:104C4C000000024080B586B000AFF860B9607A60B1
:104C5C003B600023FB75FB6893F82030012B01D1DE
:104C6C0002234AE0FB68012283F82020FB6893F8BA
:104C7C002130012B3AD1FB68022283F82120FB68FA
:104C8C0000229A63FB681B681A68FB681B6822F099
:104C9C0001021A603B687A68B968F86800F0E8F9B4
:104CAC00FB68DB6A002B08D0FB681B681A68FB6882
:104CBC001B6842F00E021A600FE0FB681B681A6852
:104CCC00FB681B6822F004021A60FB681B681A68F8
:104CDC00FB681B6842F00A021A60FB681B681A68C2
:104CEC00FB681B6842F001021A6005E0FB680022B9
:104CFC0083F820200223FB75FB7D18461837BD4630
:104D0C0080BD80B485B000AF78600023FB737B68F6
:104D1C0093F82130022B08D07B6804229A637B68BD
:104D2C00002283F82020012320E07B681B681A688E
:104D3C007B681B6822F00E021A607B681B681A687D
:104D4C007B681B6822F001021A607B681A6C7B6816
:104D5C00DB6B012101FA02F25A607B68012283F8B5
:104D6C0021207B68002283F82020FB7B1846143717
:104D7C00BD4680BC7047000080B584B000AF786041
:104D8C000023FB737B6893F82130022B05D07B68E2
:104D9C0004229A630123FB7351E07B681B681A6839
:104DAC007B681B6822F00E021A607B681B681A680D
:104DBC007B681B6822F001021A607B681B68224A20
:104DCC00934229D07B681B68204A934222D07B688F
:104DDC001B681F4A93421AD07B681B681D4A93427A
:104DEC0012D07B681B681C4A93420AD07B681B68F4
:104DFC001A4A934202D14FF480130EE04FF08073A5
:104E0C000BE04FF4803308E04FF4805305E04FF48F
:104E1C00807302E0102300E00123114A53607B6889
:104E2C00012283F821207B68002283F820207B68F4
:104E3C005B6B002B03D07B685B6B78689847FB7BC4
:104E4C0018461037BD4680BD080002401C000240C9
:104E5C003000024044000240580002406C00024006
:104E6C000000024080B584B000AF78607B68DB6BDB
:104E7C001B68FB607B681B681B68BB607B681B6CDA
:104E8C0004229A40FB681340002B4FD0BB6803F000
:104E9C000403002B4AD07B681B681B6803F02003BB
:104EAC00002B07D17B681B681A687B681B6822F093
:104EBC0004021A607B681B68664A934229D07B689F
:104ECC001B68654A934222D07B681B68634A9342F5
:104EDC001AD07B681B68624A934212D07B681B68AD
:104EEC00604A93420AD07B681B685F4A934202D1A6
:104EFC004FF480030EE04FF080630BE04FF48023FF
:104F0C0008E04FF4804305E04FF4806302E0402357
:104F1C0000E00423554A53607B68DB6A002B00F0E9
:104F2C0094807B68DB6A786898478EE07B681B6CA2
:104F3C0002229A40FB681340002B56D0BB6803F04A
:104F4C000203002B51D07B681B681B6803F0200305
:104F5C00002B0BD17B681B681A687B681B6822F0DE
:104F6C000A021A607B68012283F821207B681B6887
:104F7C00384A934229D07B681B68374A934222D027
:104F8C007B681B68354A93421AD07B681B68344A8D
:104F9C00934212D07B681B68324A93420AD07B68DA
:104FAC001B68314A934202D14FF400130EE04FF0CC
:104FBC0000730BE04FF4003308E04FF4005305E0AE
:104FCC004FF4007302E0202300E00223274A5360D1
:104FDC007B68002283F820207B689B6A002B34D0EE
:104FEC007B689B6A786898472FE07B681B6C08226B
:104FFC009A40FB681340002B28D0BB6803F00803D1
:10500C00002B23D07B681B681A687B681B6822F016
:10501C000E021A607B681A6C7B68DB6B012101FA4B
:10502C0002F25A607B6801229A637B68012283F842
:10503C0021207B68002283F820207B681B6B002BCF
:10504C0004D07B681B6B7868984700BF00BF103793
:10505C00BD4680BD080002401C00024030000240EA
:10506C0044000240580002406C0002400000024024
:10507C0080B485B000AFF860B9607A603B60FB68C3
:10508C001A6CFB68DB6B012101FA02F25A60FB68B7
:10509C001B683A685A60FB685B68102B08D1FB6888
:1050AC001B687A689A60FB681B68BA68DA6007E06C
:1050BC00FB681B68BA689A60FB681B687A68DA60E0
:1050CC0000BF1437BD4680BC70470000F0B587B0F8
:1050DC0000AFF860B960C7E900230123FB7500231A
:1050EC00BB7500237B752F4B1B7E012B01D102233B
:1050FC0054E02C4B01221A764CF2503000F0A8F8F8
:10510C000346FB75FB7D002B44D1FB68012B02D1C0
:10511C0001237B7507E0FB68022B02D102237B7510
:10512C0001E004237B750023BB752DE0BB7D5A0089
:10513C00BB6802EB030CBB7D1901D7E90023C1F15D
:10514C002006A1F1200022FA01F403FA06F63443FA
:10515C0023FA00F0044323FA01F5A3B21946604682
:10516C0000F05AF84CF2503000F072F80346FB7520
:10517C000D4B1B690C4A23F001031361FB7D002BC3
:10518C0007D1BB7D0133BB75BA7D7B7D9A42CDD3F4
:10519C0000E000BF034B00221A76FB7D18461C373B
:1051AC00BD46F0BD000700200020024080B483B053
:1051BC0000AF0023FB710D4B1B6903F08003002B28
:1051CC000DD00A4B0A4A5A60084B0A4A5A60074BE0
:1051DC001B6903F08003002B01D00123FB71FB79C9
:1051EC0018460C37BD4680BC704700BF00200240FB
:1051FC0023016745AB89EFCD80B400AF054B1B692C
:10520C00044A43F08003136100231846BD4680BC5A
:10521C00704700BF0020024080B483B000AF7860BC
:10522C000B467B80084B0022DA61084B1B69074A4E
:10523C0043F0010313617B687A881A8000BF0C3736
:10524C00BD4680BC704700BF000700200020024014
:10525C0080B584B000AF7860FFF75EFBF86010E0BB
:10526C007B68B3F1FF3F0CD07B68002B07D0FFF7B6
:10527C0053FB0246FB68D31A7A689A4201D2032385
:10528C0025E0154BDB6803F00103002BE8D1124B32
:10529C00DB6803F02003002B02D00F4B2022DA60D6
:1052AC000D4BDB6803F01003002B0BD10A4BDB69B1
:1052BC0003F00103002B05D1074BDB6803F004035B
:1052CC00002B03D000F00AF8012300E0002318465D
:1052DC001037BD4680BD00BF0020024080B483B0B3
:1052EC0000AF00237B60234BDB6803F01003002B23
:1052FC0009D0214BDB6943F002031F4AD3617B6861
:10530C0043F010037B601B4BDB6803F00403002BA2
:10531C0009D0194BDB6943F00103174AD3617B6851
:10532C0043F004037B60134BDB6903F00103002B98
:10533C000BD0114BDB6943F004030F4AD3610D4BC7
:10534C00DB690C4A23F00103D3617B6840F2011244
:10535C00934206D1074BDB69064A23F00103D36164
:10536C0002E0044A7B68D36000BF0C37BD4680BCAA
:10537C00704700BF002002400007002080B584B0B9
:10538C0000AF786039600123FB730023BB602F4BA7
:10539C001B7E012B01D1022353E02C4B01221A76E8
:1053AC007B681B68022B16D14CF25030FFF750FF74
:1053BC000346002B41D1012000F04CF84CF2503048
:1053CC00FFF746FF0346FB73214B1B69204A23F072
:1053DC000403136131E04CF25030FFF739FF034600
:1053EC00002B2AD13B684FF0FF321A607B689B6818
:1053FC00BB6019E0B86800F049F84CF25030FFF788
:10540C0027FF0346FB73124B1B69114A23F002035F
:10541C001361FB7B002B03D03B68BA681A600CE06D
:10542C00BB6803F58063BB607B68DB689A027B68B2
:10543C009B681344BA689A42DCD3044B00221A7658
:10544C00FB7B18461037BD4680BD00BF000700200F
:10545C000020024080B483B000AF7860094B00227A
:10546C00DA61094B1B69084A43F004031361064BCC
:10547C001B69054A43F04003136100BF0C37BD465E
:10548C0080BC7047000700200020024080B483B02D
:10549C0000AF78600B4B0022DA610B4B1B690A4A98
:1054AC0043F002031361084A7B685361064B1B6986
:1054BC00054A43F04003136100BF0C37BD4680BC66
:1054CC00704700BF000700200020024080B48BB062
:1054DC0000AF7860396000237B6200233B6269E196
:1054EC0001227B6A02FA03F3FB613B681B68FA69D1
:1054FC001340BB61BA69FB699A4240F058813B6822
:10550C005B689A4A93425ED0984A934275D8984AFF
:10551C00934258D0964A93426FD8964A934252D0AF
:10552C00944A934269D8944A93424CD0924A9342FB
:10553C0063D8924A934246D0904A93425DD8122B3C
:10554C002AD8122B59D801A252F823F0D3550008AF
:10555C00AD550008BF550008015600080756000855
:10556C00075600080756000807560008075600089B
:10557C00075600080756000807560008075600088B
:10558C00075600080756000807560008075600087B
:10559C00B5550008C9550008794A934213D02CE040
:1055AC003B68DB683B6229E03B68DB6804333B62A9
:1055BC0024E03B68DB6808333B621FE03B68DB6838
:1055CC000C333B621AE03B689B68002B02D104232E
:1055DC003B6213E03B689B68012B05D108233B62BF
:1055EC007B68FA691A6109E008233B627B68FA69F7
:1055FC005A6103E000233B6200E000BFBB69FF2B54
:10560C0001D87B6801E07B6804337B61BB69FF2BAD
:10561C0002D87B6A9B0002E07B6A083B9B003B61E3
:10562C007B691A680F213B6901FA03F3DB431A40CB
:10563C00396A3B6901FA03F31A437B691A603B68C8
:10564C005B6803F08053002B00F0B1804D4B9B69DD
:10565C004C4A43F0010393614A4B9B6903F00103ED
:10566C00BB60BB68484A7B6A9B08023352F8233004
:10567C00FB607B6A03F003039B000F2202FA03F327
:10568C00DB43FA681340FB607B68404A934213D0BB
:10569C007B683F4A93420DD07B683E4A934207D0C9
:1056AC007B683D4A934201D1032306E0042304E0C6
:1056BC00022302E0012300E000237A6A02F00302D5
:1056CC0092009340FA681343FB602F497B6A9B0856
:1056DC000233FA6841F823203B685B6803F480339B
:1056EC00002B06D02D4B1A682C49BB6913430B6059
:1056FC0006E02A4B1A68BB69DB43284913400B6050
:10570C003B685B6803F40033002B06D0234B5A68CC
:10571C002249BB6913434B6006E0204B5A68BB69B6
:10572C00DB431E4913404B603B685B6803F48013FA
:10573C00002B06D0194B9A681849BB6913438B6030
:10574C0006E0164B9A68BB69DB43144913408B6027
:10575C003B685B6803F40013002B21D00F4BDA6815
:10576C000E49BB691343CB6021E000BF000032102F
:10577C000000311000002210000021100000121057
:10578C000000111000100240000001400008014010
:10579C00000C0140001001400014014000040140C5
:1057AC000B4BDA68BB69DB4309491340CB607B6A5E
:1057BC0001337B623B681A687B6A22FA03F3002B85
:1057CC007FF48EAE00BF00BF2C37BD4680BC704747
:1057DC000004014080B485B000AF78600B467B803C
:1057EC007B689A687B881340002B02D00123FB73E3
:1057FC0001E00023FB73FB7B18461437BD4680BCCD
:10580C00704780B483B000AF78600B467B80134642
:10581C007B707B78002B03D07A887B681A6103E05D
:10582C007B881A047B681A6100BF0C37BD4680BCAC
:10583C00704780B485B000AF78600B467B807B6886
:10584C00DB68FB607A88FB6813401A04FB68D94359
:10585C007B880B401A437B681A6100BF1437BD4626
:10586C0080BC704780B582B000AF0346FB80084B0C
:10587C005A69FB881340002B06D0054AFB885361FC
:10588C00FB88184600F006F800BF0837BD4680BDFF
:10589C000004014080B483B000AF0346FB8000BF1E
:1058AC000C37BD4680BC704780B586B000AF7860C1
:1058BC007B68002B01D1012372E27B681B6803F02B
:1058CC000103002B00F08780924B5B6803F00C0304
:1058DC00042B0CD08F4B5B6803F00C03082B12D1FC
:1058EC008C4B5B6803F48033B3F5803F0BD1894B51
:1058FC001B6803F40033002B6CD07B685B68002BB7
:10590C0068D101234CE27B685B68B3F5803F06D11C
:10591C00804B1B687F4A43F4803313602EE07B6816
:10592C005B68002B0CD17B4B1B687A4A23F48033C9
:10593C001360784B1B68774A23F4802313601DE0B7
:10594C007B685B68B3F5A02F0CD1724B1B68714A56
:10595C0043F4802313606F4B1B686E4A43F480330F
:10596C0013600BE06B4B1B686A4A23F480331360A3
:10597C00684B1B68674A23F4802313607B685B6861
:10598C00002B13D0FEF7C8FF386108E0FEF7C4FF08
:10599C0002463B69D31A642B01D9032300E25D4B09
:1059AC001B6803F40033002BF0D014E0FEF7B4FFB7
:1059BC00386108E0FEF7B0FF02463B69D31A642B4E
:1059CC0001D90323ECE1534B1B6803F40033002B88
:1059DC00F0D100E000BF7B681B6803F00203002BD2
:1059EC0063D04C4B5B6803F00C03002B0BD0494B82
:1059FC005B6803F00C03082B1CD1464B5B6803F46B
:105A0C008033002B16D1434B1B6803F00203002B91
:105A1C0005D07B681B69012B01D00123C0E13D4BF4
:105A2C001B6823F0F8027B685B69DB003949134380
:105A3C000B603AE07B681B69002B20D0364B0122AF
:105A4C001A60FEF769FF386108E0FEF765FF024651
:105A5C003B69D31A022B01D90323A1E12D4B1B68FF
:105A6C0003F00203002BF0D02A4B1B6823F0F80242
:105A7C007B685B69DB00274913430B6015E0264B01
:105A8C0000221A60FEF748FF386108E0FEF744FF79
:105A9C0002463B69D31A022B01D9032380E11D4B2B
:105AAC001B6803F00203002BF0D17B681B6803F02A
:105ABC000803002B3AD07B689B69002B19D0174B3D
:105ACC0001221A60FEF728FF386108E0FEF724FF78
