:020000040800F2
:10000000005000205D5A0008612F0008672F00088B
:100010006D2F0008732F0008792F000800000000E2
:100020000000000000000000000000007F2F00081A
:100030008B2F000800000000972F0008A32F000856
:10004000A55A0008A55A0008A55A0008A55A000894
:10005000A55A0008A55A0008A55A0008A55A000884
:10006000A55A0008A55A0008A55A0008A55A000874
:10007000A55A0008B12F0008C52F0008A55A00088E
:10008000A55A0008A55A0008A55A0008A55A000854
:10009000A55A0008A55A0008A55A0008A55A000844
:1000A000A55A0008A55A0008A55A0008A55A000834
:1000B00061200008A55A0008A55A0008A55A0008A2
:1000C000A55A0008A55A0008A55A0008A55A000814
:1000D000D92F0008A55A0008A55A0008A55A0008FB
:1000E000ED2F0008A55A0008A55A000800000000DE
:1000F0000000000000000000000000000000000000
:0C01000000000000000000005FF808F1A3
:10010C00034613F8012B002AFBD1181A013870474B
:10011C000348044B834202D0034B03B1184770478A
:10012C006C0000206C000020000000000548064B0D
:10013C001B1AD90F01EBA301491002D0034B03B1D9
:10014C00184770476C0000206C0000200000000075
:10015C0010B5064C237843B9FFF7DAFF044B13B103
:10016C000448AFF300800123237010BD6C00002005
:10017C00000000005064000808B5054B1BB1054990
:10018C000548AFF30080BDE80840FFF7CFBF00BFC4
:10019C0000000000700000205064000880B5AEB074
:1001AC0008AFB34B1B680021184601F07EFA07F12B
:1001BC00640300221A605A609A60DA60C3F80F2058
:1001CC0007F1500300221A605A609A60DA60C3F893
:1001DC000F2007F13C0300221A605A609A60DA6023
:1001EC00C3F80F204FF6FF73A7F896300123C7F81A
:1001FC00903010E0D7F89030013B9E49D7F8902012
:10020C000A44127898333B4403F8342CD7F89030D6
:10021C000133C7F89030D7F89030122BEADD002369
:10022C0087F876300023C7F88C3011E007F16402B0
:10023C00D7F88C3013441B78242B04D1D7F88C308E
:10024C00A7F8963008E0D7F88C300133C7F88C301B
:10025C00D7F88C30112BE9DDB7F896304FF6FF72DA
:10026C00934200F0CA80002307936623069304236D
:10027C000593012304930223039302230293012386
:10028C00019300230093002300220221002001F09F
:10029C00BDF807F1280300221A605A609A60DA60F0
:1002AC00C3F80F200123C7F8883017E0714AD7F83C
:1002BC00883013441B78242B15D0D7F88830013B99
:1002CC006C49D7F888200A44127898333B4403F8D9
:1002DC00702CD7F888300133C7F88830D7F88830BD
:1002EC00122BE3DD00E000BF07F12803184601F0F4
:1002FC00AFF9052002F040FF01F0FBFD01F010F812
:10030C0001F010FAB7F896301A4652001A449200CF
:10031C0013449B00A7F87A30B7F87A30079366231A
:10032C0006930423059301230493022303930223CE
:10033C000293012301930023009300230022022146
:10034C00022001F063F8042000F0D0FE002000F041
:10035C00F5FE002000F0F2FE022002F00DFFB7F8CF
:10036C0096300133342202FB03F307936623069382
:10037C000423059301230493022303930223029382
:10038C00012301930023009300230022022100206B
:10039C0001F03CF807F1140300221A605A609A60CD
:1003AC00DA60C3F80F200023C7F88430B7F8963012
:1003BC000133C7F8803013E0D7F884305A1CC7F8E3
:1003CC00842007F16401D7F880200A44127898330E
:1003DC003B4403F8842CD7F880300133C7F88030C5
:1003EC00D7F88030122BE7DD002387F8263007F191
:1003FC001403184601F02CF936E00023079366230A
:10040C0006930423059301230493022303930223ED
:10041C000293012301930023009300230022022165
:10042C00002000F0F3FF3B4600221A605A609A60ED
:10043C00DA60C3F80F200123FB670CE0FB6F013B74
:10044C000C49FA6F0A44127898333B4403F8982C01
:10045C00FB6F0133FB67FB6F122BEFDD0023BB74CB
:10046C003B46184601F0F4F800BF9837BD4680BDF6
:10047C00000000202402002080B5A4B008AF934BEC
:10048C001B680021184601F010F907F130031E22F9
:10049C000021184605F048FB8D4A07F1240307CAD2
:1004AC0003C31A800023FB661323BB660CE0BB6EF0
:1004BC00133B8849BA6E0A44127870333B4403F8F4
:1004CC00402CBB6E0133BB66BB6E2F2BEFDD0023C4
:1004DC0087F84D3000237B6613E007F130027B6E0A
:1004EC0013441B78242B09D1FB6E5A1CFA667A6EC6
:1004FC0092B25B0070333B4423F84C2C7B6E01337F
:10050C007B667B6E1D2B02DCFB6E042BE5DD002372
:10051C00A7F85A303C23A7F8583000233B66ACE0D0
:10052C003B6E002B08D03B6E013B5B0070333B44B1
:10053C0033F84C3C013300E000237B653A6EFB6ED4
:10054C009A4206DA3B6E5B0070333B4433F84C3C0A
:10055C0000E01E233B657A6D3B6D9A424ADA3B1DE7
:10056C001E220021184605F0DFFA7B6DFB650EE0BC
:10057C00FA6D7B6DD31A07F13001FA6D0A441278CB
:10058C0070333B4403F86C2CFB6D0133FB65FA6D47
:10059C003B6D9A42ECDB3A6D7B6DD31A70333B4466
:1005AC00002203F86C2C7B6D9BB21A46520013444C
:1005BC00DB009AB2B7F858301344A7F85A30B7F8A2
:1005CC005A300793C8230693002305930123049301
:1005DC00012303930123029301230193002300932E
:1005EC00002300220121002000F010FF3B1D1846C3
:1005FC0001F02EF8052002F0BFFD01F07AFC00F0AE
:10060C00CBFE01F08FF83A6EFB6E9A4232DA3B6EFB
:10061C005B0070333B4433F84C3C1A465200134495
:10062C00DB00A7F84E30B7F85820B7F84E3013441B
:10063C00A7F85A30B7F85A300793C823069300230B
:10064C0005930123049301230393012302930123B4
:10065C00019300230093002300220121022000F0CB
:10066C00D5FE042000F042FD002000F067FD0020C4
:10067C0000F064FD3B6E01333B663A6EFB6E9A42B2
:10068C007FF74EAFFB6E002B1BD1B7F8583007939A
:10069C00C823069300230593052304930123039396
:1006AC0001230293012301930023009300230022D2
:1006BC000121002000F0AAFE07F13003184600F0DB
:1006CC00C7FF00BF7037BD4680BD00BF04000020CF
:1006DC00686400082402002080B5B0B008AF07F1B0
:1006EC0050034C220021184605F01EFA684B3B655E
:1006FC00684B7B65684BBB65684BFB65684B3B6621
:10070C00684B7B66684BBB66684BFB66684B3B670C
:10071C00684B7B67684BBB67684BFB67684BC7F8DC
:10072C008030684BC7F88430674BC7F88830674B0C
:10073C00C7F88C30664BC7F89030664BC7F89430CE
:10074C003B1D4C220021184605F0EEF90A237B6074
:10075C003E23BB607223FB60A6233B61DA237B61E3
:10076C004FF48773BB614FF4A173FB614FF4BB7300
:10077C003B624FF4D5737B624FF4EF73BB6240F274
:10078C001223FB6240F246233B6340F27A237B63E5
:10079C0040F2AE23BB6340F2E223FB6340F216331C
:1007AC003B6440F24A337B644FF46173BB640023B7
:1007BC00C7F89C3062E0D7F89C300133464AD35CD2
:1007CC00002B2CD0454B1B680021184600F06DFF08
:1007DC00D7F89C309B00A0333B4453F89C3C0793C8
:1007EC0046230693002305930523049301230393C7
:1007FC000023029301230193002300930023002282
:10080C000021002000F002FED7F89C309B00A033A2
:10081C003B4453F8503C184600F01AFF29E00021E5
:10082C00002000F042FFD7F89C309B00A0333B44E3
:10083C0053F89C3C0793462306930023059305230A
:10084C0004930123039300230293012301930023B8
:10085C000093002300220021002000F0D7FDD7F8E0
:10086C009C309B00A0333B4453F8503C184600F09E
:10087C00EFFED7F89C300133C7F89C30D7F89C308A
:10088C00112B98DD00BF00BFA037BD4680BD00BF57
:10089C00746400087C640008846400088C6400089C
:1008AC009064000898640008A0640008A86400081C
:1008BC00B0640008B4640008BC640008C464000898
:1008CC00CC640008D4640008DC640008E064000810
:1008DC00E4640008E86400085402002008000020CA
:1008EC00B0B598B008AF364B1B78002B64D0354BA5
:1008FC001B680133334A1360324B1B688D2B2FD985
:10090C002F4B00221A7000214FF47F4000F0CDFED7
:10091C0064230793FA23069304230593012304937A
:10092C0000230393002302930123019300230093DC
:10093C00002300220021002000F068FD224B3C1D0A
:10094C001D460FCD0FC40FCD0FC40FCD0FC495E8AE
:10095C00070084E807003B1D184600F079FE2BE0E9
:10096C0000214FF47F4000F0A0FE64230793FA238C
:10097C00069304230593012304930023039300237C
:10098C0002930123019300230093002300220021F2
:10099C00002000F03BFD0D4B3C1D1D460FCD0FC440
:1009AC000FCD0FC40FCD0FC495E8070084E80700E6
:1009BC003B1D184600F04CFE00BF4037BD46B0BD95
:1009CC000C00002088000020EC640008286500085A
:1009DC0080B584B000AF03460A46FB8013467B719A
:1009EC007B79013BFB6025E0FA88FB6842FA03F354
:1009FC0003F00103002B05D001222021114803F044
:100A0C0026F904E0002220210E4803F020F90122EF
:100A1C0010210C4803F01BF9052000F05DF80022B2
:100A2C001021084803F013F9052000F055F8FB6875
:100A3C00013BFB60FB68002BD6DA00BF00BF103710
:100A4C00BD4680BD000C014080B582B000AF0346AE
:100A5C00FB71002208210C4803F0F9F80A2000F081
:100A6C003BF8FB799BB209211846FFF7B1FF012235
:100A7C000821054803F0EBF80A2000F02DF800BF20
:100A8C000837BD4680BD00BF000C014080B582B068
:100A9C0000AF0346FB71002208210E4803F0D7F883
:100AAC000A2000F019F8FB791BB243F480731BB2D7
:100ABC009BB209211846FFF78BFF0122082105483C
:100ACC0003F0C5F80A2000F007F800BF0837BD4650
:100ADC0080BD00BF000C014080B586B000AF03465E
:100AEC00FB80154B9B687B6103F0CEFC0346134ADD
:100AFC00A2FB03239B0CFA8802FB03F33B610E4B16
:100B0C005B680133FB6008E00B4B9B68FA689A4208
:100B1C0003D27A69FB68D31A7B61074B9B687A69AD
:100B2C00D31A23F07F433A699A42EDD800BF00BF35
:100B3C001837BD4680BD00BF10E000E083DE1B43CC
:100B4C0080B582B000AFFF20FFF77EFF7720FFF764
:100B5C009DFF0120FFF79AFF0020FFF797FF002071
:100B6C00FFF794FF1320FFF791FFEF20FFF76CFFC7
:100B7C000820FFF78BFFFF20FFF766FF7720FFF7BA
:100B8C0085FF0120FFF782FF0020FFF77FFF002089
:100B9C00FFF77CFF1020FFF779FFC020FFF754FF11
:100BAC007720FFF773FF0020FFF770FFC120FFF7DE
:100BBC004BFF1020FFF76AFF1220FFF767FFC220E0
:100BCC00FFF742FF3720FFF761FF0820FFF75EFFBA
:100BDC00C320FFF739FF8120FFF758FF0020FFF7F4
:100BEC0055FF2220FFF752FFCC20FFF72DFF1020DE
:100BFC00FFF74CFFB020FFF727FF4020FFF746FF21
:100C0C001420FFF743FF5920FFF740FF1020FFF798
:100C1C003DFF1220FFF73AFF0820FFF737FF0320B4
:100C2C00FFF734FF0920FFF731FF0520FFF72EFFF8
:100C3C001E20FFF72BFF0520FFF728FF1420FFF7DE
:100C4C0025FF1020FFF722FF6820FFF71FFF33203E
:100C5C00FFF71CFF1520FFF719FFB120FFF7F4FE7B
:100C6C004020FFF713FF0820FFF710FF5320FFF77A
:100C7C000DFF0920FFF70AFF1120FFF707FF0920DE
:100C8C00FFF704FF0220FFF701FF0720FFF7FEFE2E
:100C9C000920FFF7FBFE1A20FFF7F8FE0420FFF7F0
:100CAC00F5FE1220FFF7F2FE1220FFF7EFFE642094
:100CBC00FFF7ECFE2920FFF7E9FE2920FFF7E6FEFF
:100CCC00FF20FFF7C1FE7720FFF7E0FE0120FFF7C2
:100CDC00DDFE0020FFF7DAFE0020FFF7D7FE112023
:100CEC00FFF7D4FEB020FFF7AFFE6D20FFF7CEFE6E
:100CFC00B120FFF7A9FE1D20FFF7C8FEB220FFF7B9
:100D0C00A3FE8720FFF7C2FEB320FFF79DFE002055
:100D1C00FFF7BCFEB520FFF797FE4920FFF7B6FEA4
:100D2C00B720FFF791FE8520FFF7B0FEB820FFF744
:100D3C008BFE2020FFF7AAFEC120FFF785FE78204E
:100D4C00FFF7A4FEC220FFF77FFE7820FFF79EFE80
:100D5C00D020FFF779FE8820FFF798FEE020FFF700
:100D6C0073FE0020FFF792FE0020FFF78FFE02209B
:100D7C00FFF78CFE0023FB710223BB71FB79002B68
:100D8C0001D0102200E0002297F9063003F0030393
:100D9C005BB213435BB27B71E120FFF755FE7B79AD
:100DAC001846FFF773FE8C20FFF770FE0020FFF74C
:100DBC006DFE0020FFF76AFE0320FFF767FE8C2014
:100DCC00FFF764FE0020FFF761FE0020FFF75EFED8
:100DDC000020FFF75BFE3320FFF758FE3320FFF7B0
:100DEC0055FE00233B710223FB703B79002B01D095
:100DFC00102200E0002297F9033003F003035BB2EA
:100E0C0013435BB2BB70E220FFF71EFEBB781846A3
:100E1C00FFF73CFE3320FFF739FE3320FFF736FE99
:100E2C003320FFF733FE3320FFF730FEC920FFF7E6
:100E3C002DFE3C20FFF72AFE0020FFF727FE0020A6
:100E4C00FFF724FECA20FFF721FE3C20FFF71EFE11
:100E5C000020FFF71BFE0020FFF718FE0020FFF715
:100E6C0015FEE320FFF7F0FD0020FFF70FFE00203A
:100E7C00FFF70CFE3320FFF709FE3320FFF706FEC9
:100E8C00E420FFF7E1FD4420FFF700FE4420FFF7CC
:100E9C00FDFDE520FFF7D8FD0520FFF7F7FDCD2080
:100EAC00FFF7F4FD8220FFF7F1FD8220FFF7EEFD46
:100EBC000120FFF7EBFDC920FFF7E8FD8220FFF7CB
:100ECC00E5FD8220FFF7E2FD0720FFF7DFFDCF20D5
:100EDC00FFF7DCFD8220FFF7D9FD8220FFF7D6FD5E
:100EEC000320FFF7D3FDCB20FFF7D0FD8220FFF7C7
:100EFC00CDFD8220FFF7CAFDE620FFF7A5FD0020FF
:100F0C00FFF7C4FD0020FFF7C1FD3320FFF7BEFD46
:100F1C003320FFF7BBFDE720FFF796FD4420FFF7DA
:100F2C00B5FD4420FFF7B2FDE820FFF78DFD06204C
:100F3C00FFF7ACFDCE20FFF7A9FD8220FFF7A6FD41
:100F4C008220FFF7A3FD0220FFF7A0FDCA20FFF7C8
:100F5C009DFD8220FFF79AFD8220FFF797FD082068
:100F6C00FFF794FDD020FFF791FD8220FFF78EFD57
:100F7C008220FFF78BFD0420FFF788FDCC20FFF7C4
:100F8C0085FD8220FFF782FD8220FFF77FFDEB209D
:100F9C00FFF75AFD0820FFF779FD0120FFF776FDDA
:100FAC00E420FFF773FDE420FFF770FD8820FFF7C6
:100FBC006DFD0020FFF76AFD4020FFF767FDEC2078
:100FCC00FFF742FD0020FFF761FD0020FFF75EFDFB
:100FDC000020FFF75BFDED20FFF736FDFF20FFF74C
:100FEC0055FDF020FFF752FD0720FFF74FFD652060
:100FFC00FFF74CFD4F20FFF749FDFC20FFF746FDA6
:10100C00C220FFF743FD2F20FFF740FDF220FFF732
:10101C003DFD2C20FFF73AFDCF20FFF737FDF420E4
:10102C00FFF734FD5620FFF731FD7020FFF72EFD42
:10103C000F20FFF72BFDFF20FFF728FDEF20FFF718
:10104C0003FD1020FFF722FD0D20FFF71FFD0420EC
:10105C00FFF71CFD0820FFF719FD3F20FFF716FDD9
:10106C001F20FFF713FDFF20FFF7EEFC7720FFF7A3
:10107C000DFD0120FFF70AFD0020FFF707FD002002
:10108C00FFF704FD0020FFF701FD1120FFF7DCFC4A
:10109C00782002F071F83520FFF7D6FC0020FFF71E
:1010AC00F5FC3A20FFF7D0FC5520FFF7EFFC292088
:1010BC00FFF7CAFC00BF0837BD4680BD80B500AF46
:1010CC0000224FF48061084802F0C1FD642002F058
:1010DC0053F801224FF48061034802F0B8FD6420FC
:1010EC0002F04AF800BF80BD000C014080B584B00E
:1010FC0000AF0346FB710023FB73002210210D4847
:10110C0002F0A5FD07F10F014FF0FF3301220A4851
:10111C0003F066FAF91D4FF0FF330122064803F085
:10112C005FFA01221021034802F091FD00BF103735
:10113C00BD4680BD000801403005002080B584B05C
:10114C0000AF0346FB718023FB73002210210D4876
:10115C0002F07DFD07F10F014FF0FF3301220A4829
:10116C0003F03EFAF91D4FF0FF330122064803F05D
:10117C0037FA01221021034802F069FD00BF103735
:10118C00BD4680BD000801403005002080B582B00E
:10119C0000AFC023FB710023BB71002210210D484E
:1011AC0002F055FDF91D4FF0FF3301220A4803F000
:1011BC0017FAB91D4FF0FF330122074803F04CFB1F
:1011CC0001221021034802F042FDBB791846083772
:1011DC00BD4680BD000801403005002080B582B0BE
:1011EC0000AF03460A46FB711346BB71FB791846E8
:1011FC00FFF77CFFBB791846FFF7A0FF00BF08374D
:10120C00BD4680BD80B500AF00F0EEFD0A2001F0B8
:10121C00B3FF00F0D3FA642001F0AEFF00F0EDFB59
:10122C00052001F0A9FF00F04BFC642001F0A4FFA5
:10123C008420FFF75BFF0020FFF780FF052001F003
:10124C009BFF00F065FD052001F096FF4FF47071D7
:10125C004FF4A07000F078FC052001F08DFF5020B9
:10126C0000F0B9FC052001F087FF142000F0D6FC3B
:10127C00052001F081FF142000F0ECFC052001F0AA
:10128C007BFF0A2000F002FD052001F075FF0C2009
:10129C0000F016FD052001F06FFF032000F024FD87
:1012AC00052001F069FF00F010FE052001F064FF3D
:1012BC0000F036FB052001F05FFF00F0C3FD0520B8
:1012CC0001F05AFF00F0CEFD052001F055FF00F0B3
:1012DC0041FA052001F050FF00F0E7FD052001F078
:1012EC004BFF00F034FE052001F046FF00F05BFEE2
:1012FC00052001F041FF00F0FCFD052001F03CFF52
:10130C0000F007FE052001F037FF00F07FFD0520FF
:10131C0001F032FF00F006FA00F02EF900BF80BD9C
:10132C00B0B592B000AF1B4B3C1D1D460FCD0FC48A
:10133C000FCD0FC40FCD0FC495E80F0084E80F003C
:10134C000320FFF7D3FE002387F8463097F846308A
:10135C001846FFF7F3FE002387F8473010E004200F
:10136C00FFF7C4FE97F8473048333B4413F8443C2E
:10137C001846FFF7E3FE97F84730013387F84730FC
:10138C0097F847303F2BEAD900BF00BF4837BD461E
:10139C00B0BD00BF64650008B0B58EB000AF1A4B8D
:1013AC003C1D1D460FCD0FC40FCD0FC495E80F008B
:1013BC0084E80F000320FFF799FE002387F83630EE
:1013CC0097F836301846FFF7B9FE002387F8373008
:1013DC0010E00420FFF78AFE97F8373038333B448F
:1013EC0013F8343C1846FFF7A9FE97F83730013351
:1013FC0087F8373097F837302F2BEAD900BF00BF6A
:10140C003837BD46B0BD00BFA465000890B585B0A7
:10141C0000AF0446084611461A462346FB710346A4
:10142C00BB710B467B7113463B710023FB7300238E
:10143C00BB7397F907309B015AB297F90F301343DE
:10144C005BB2FB7397F906301B015BB203F0300300
:10145C005AB297F90F3013435BB2FB7397F905300F
:10146C0003F003035AB297F90F3013435BB2FB73CB
:10147C00CC20FFF73BFEFB7B1846FFF75FFE97F98E
:10148C000430DB015AB297F90E3013435BB2BB73D5
:10149C0097F920309B015AB297F90E3013435BB287
:1014AC00BB7397F924301B015AB297F90E301343D2
:1014BC005BB2BB7397F928309B005BB203F00C0353
:1014CC005AB297F90E3013435BB2BB7397F92C30B9
:1014DC0003F003035AB297F90E3013435BB2BB739C
:1014EC00CD20FFF703FEBB7B1846FFF727FED0206D
:1014FC00FFF7FCFD97F8303003F01F03DBB2184602
:10150C00FFF71CFED120FFF7F1FD97F8343003F004
:10151C003F03DBB21846FFF711FE6320FFF7E6FD31
:10152C003B8FDBB21846FFF709FE6420FFF7DEFDA8
:10153C003B8F1B0A9BB2DBB203F01F03DBB21846D6
:10154C00FFF7FCFD6520FFF7D1FDBB8FDBB2184622
:10155C00FFF7F4FD6620FFF7C9FDBB8F1B0A9BB29A
:10156C00DBB203F01F03DBB21846FFF7E7FD00BF49
:10157C001437BD4690BD000080B58AB008AF082373
:10158C007B8010233B800021002000F08EF800238C
:10159C000793002306930023059300230493012350
:1015AC00039301230293012301930023009300234F
:1015BC00002200210020FFF729FF0023FB803BE0E5
:1015CC000023BB8030E06320FFF790FDBB88DBB2CB
:1015DC001846FFF7B3FD6420FFF788FDBB881B0A94
:1015EC009BB2DBB203F01F03DBB21846FFF7A6FD7C
:1015FC006520FFF77BFDFB88DBB21846FFF79EFDED
:10160C006620FFF773FDFB881B0A9BB2DBB203F06D
:10161C001F03DBB21846FFF791FD0C4800F018F8D9
:10162C00BA883B881344BB80BB88B3F5A07FCAD370
:10163C00FA887B881344FB80FB88B3F5707FBFD39B
:10164C0000BF00BF0837BD4680BD00BFD465000891
:10165C0080B584B000AF78601EE0BA20FFF746FD7D
:10166C00FFF794FD0346FB7306E0BA20FFF73EFD3F
:10167C00FFF78CFD0346FB73FB7B03F04003002B51
:10168C00F3D10420FFF732FD7B681B781846FFF777
:10169C0055FD7B6801337B607B681B78002BDCD1AC
:1016AC0000BF00BF1037BD4680BD80B582B000AF13
:1016BC0078603960D220FFF719FD7B681B0CDBB218
:1016CC001846FFF73BFDD320FFF710FD7B681B0A84
:1016DC00DBB21846FFF732FDD420FFF707FD7B681D
:1016EC00DBB21846FFF72AFDD520FFF7FFFC3B685D
:1016FC001B0CDBB21846FFF721FDD620FFF7F6FCDA
:10170C003B681B0ADBB21846FFF718FDD720FFF722
:10171C00EDFC3B68DBB21846FFF710FD00BF083745
:10172C00BD4680BD80B582B000AF0023FB71FB7954
:10173C0043F00403FB71FB7923F00303FB710320DB
:10174C00FFF7D4FCFB791846FFF7F8FC00BF08370D
:10175C00BD4680BD80B500AF5620FFF7C7FC00200A
:10176C00FFF7ECFC5720FFF7C1FC0020FFF7E6FC6D
:10177C005820FFF7BBFC0020FFF7E0FC5920FFF7D7
:10178C00B5FC0020FFF7DAFC5A20FFF7AFFC3F2036
:10179C00FFF7D4FC5B20FFF7A9FC0120FFF7CEFC80
:1017AC005C20FFF7A3FCBF20FFF7C8FC5D20FFF710
:1017BC009DFC0320FFF7C2FC00BF80BD80B588B044
:1017CC0000AF554B7B617B6903F5F42303F59073F4
:1017DC00524AA2FB03239B0C7B617B69FB837B69D5
:1017EC009BB25B00BB837B699BB25B007B83FB8BF7
:1017FC00412B01D94123FB83BB8B642B01D964237F
:10180C00BB837B8B642B01D964237B8302237B8278
:10181C0002233B820223FB810523BB8105237B81B1
:10182C0005233B81FB8BFB807B8BBB80BB8B7B8045
:10183C000520FFF75BFC7B8A5BB29B015AB2BB892C
:10184C005BB25B005BB213435AB2FB881B0A9BB2C0
:10185C005BB203F001035BB213435BB2DBB218461D
:10186C00FFF76CFC0620FFF741FCFB88DBB2184647
:10187C00FFF764FC0720FFF739FCFB895BB29B0187
:10188C005AB23B895BB25B005BB213435AB27B88A2
:10189C001B0A9BB25BB203F001035BB213435BB256
:1018AC00DBB21846FFF74AFC0820FFF71FFC7B88C9
:1018BC00DBB21846FFF742FC0920FFF717FC3B8A06
:1018CC005BB29B015AB27B895BB25B005BB2134388
:1018DC005AB2BB881B0A9BB25BB203F001035BB22A
:1018EC0013435BB2DBB21846FFF728FC0A20FFF764
:1018FC00FDFBBB88DBB21846FFF720FC0020FFF78E
:10190C00F5FB8020FFF71AFC0A2001F035FC00BF24
:10191C002037BD4680BD00BF20CA8C0183DE1B432F
:10192C0080B582B000AF0023FB71FB7943F0040358
:10193C00FB711020FFF7DAFBFB791846FFF7FEFB73
:10194C002A20FFF7D3FB0020FFF7F8FB2B20FFF733
:10195C00CDFB0020FFF7F2FB2C20FFF7C7FB00208C
:10196C00FFF7ECFB2D20FFF7C1FB0020FFF7E6FB98
:10197C002E20FFF7BBFB6420FFF7E0FB2F20FFF7C7
:10198C00B5FB0020FFF7DAFB3020FFF7AFFB64203C
:10199C00FFF7D4FB3120FFF7A9FB0020FFF7CEFBAC
:1019AC003220FFF7A3FB0020FFF7C8FB3320FFF723
:1019BC009DFB0020FFF7C2FB3420FFF797FB0020B4
:1019CC00FFF7BCFB3520FFF791FB0020FFF7B6FBC0
:1019DC000023BB71BB7943F00403BB71BB7943F0AB
:1019EC000103BB711120FFF781FBBB791846FFF790
:1019FC00A5FB00BF0837BD4680BD80B582B000AFE7
:101A0C000023FB71E420FFF771FBFB7943F0040327
:101A1C00FB71FB791846FFF791FBE020FFF766FBA3
:101A2C002920FFF78BFBE120FFF760FB0320FFF77A
:101A3C0085FB9C23BB80BB88023BBB80E220FFF76D
:101A4C0055FBBB88DBB21846FFF778FBE320FFF7AA
:101A5C004DFBBB881B0A9BB2DBB21846FFF76EFB33
:101A6C00E420FFF743FB0120FFF768FBE420FFF7BE
:101A7C003DFBFB7923F00403FB71FB791846FFF760
:101A8C005DFB012001F078FB00F004F800BF083783
:101A9C00BD4680BD80B582B000AFE420FFF726FBC9
:101AAC00FFF774FB0346FB71FB7903F00103002B7A
:101ABC00F3D00A2001F060FB00BF0837BD4680BDA3
:101ACC0080B582B000AF0023FB71FB7943F00803B3
:101ADC00FB71FB7943F04003FB710120FFF706FB20
:101AEC00FB791846FFF72AFB0023FB710220FFF756
:101AFC00FDFAFB791846FFF721FB0023FB7103204D
:101B0C00FFF7F4FAFB791846FFF718FB0023FB717B
:101B1C001220FFF7EBFAFB791846FFF70FFB0023B7
:101B2C00FB71FB7943F00203FB71FB7943F001037A
:101B3C00FB711320FFF7DAFAFB791846FFF7FEFA70
:101B4C0000BF0837BD4680BD80B584B000AF0346EA
:101B5C000A46FB801346BB80FB88DB089BB2013B2B
:101B6C00FB810023BB811420FFF7C0FAFB89DBB299
:101B7C001846FFF7E3FA1520FFF7B8FABB89DBB27A
:101B8C0003F00F03DBB21846FFF7D8FABB88B3F5A6
:101B9C00806F02D94FF48063BB80BB88002B01D1CE
:101BAC000123BB80BB88013B7B811A20FFF79EFA87
:101BBC007B89DBB21846FFF7C1FA1B20FFF796FAB8
:101BCC007B891B0A9BB2DBB21846FFF7B7FA00BF42
:101BDC001037BD4680BD80B584B000AF0346FB8096
:101BEC00FB88DB089BB2013BFB810023BB811620E9
:101BFC00FFF77CFAFB89DBB21846FFF79FFA172038
:101C0C00FFF774FABB89DBB203F00F03DBB21846A3
:101C1C00FFF794FA00BF1037BD4680BD80B584B085
:101C2C0000AF0346FB80FB88072B02D80023FB8107
:101C3C0004E0FB88DB089BB2013BFB811820FFF71B
:101C4C0055FAFB89DBB21846FFF778FA00BF10375C
:101C5C00BD4680BD80B584B000AF0346FB80FB88D9
:101C6C00072B02D80023FB8104E0FB88DB089BB226
:101C7C00013BFB811920FFF739FAFB89DBB21846CF
:101C8C00FFF75CFA00BF1037BD4680BD80B584B04D
:101C9C0000AF0346FB80FB88DBB2013BFB731C20CF
:101CAC00FFF724FAFB7B1846FFF748FA1D20FFF7D5
:101CBC001DFA0020FFF742FA00BF1037BD4680BD69
:101CCC0080B584B000AF0346FB80FB88DBB2013BE0
:101CDC00FB731E20FFF70AFAFB7B1846FFF72EFA60
:101CEC0000BF1037BD4680BD80B584B000AF034641
:101CFC00FB80FB88DBB2013BFB731F20FFF7F6F97F
:101D0C00FB7B1846FFF71AFA00BF1037BD4680BDA3
:101D1C0080B582B000AF0023FB71FB7943F0400328
:101D2C00FB71FB7943F00803FB711220FFF7DEF91E
:101D3C00FB791846FFF702FA00BF0837BD4680BD95
:101D4C0080B584B000AF0346FB71FB79642B01D9DD
:101D5C006423FB718420FFF7C9F91020FFF7EEF91B
:101D6C008520FFF7C3F98820FFF7E8F9FA791346C5
:101D7C001B029B1A1B4A82FB03125211DB17D31A4C
:101D8C00FB81FF23BB818C20FFF7B0F9FB89DBB211
:101D9C001846FFF7D3F98D20FFF7A8F9FB891B0A2A
:101DAC009BB2DBB21846FFF7C9F98E20FFF79EF9FC
:101DBC00BB89DBB21846FFF7C1F98F20FFF796F904
:101DCC00BB891B0A9BB2DBB21846FFF7B7F986201A
:101DDC00FFF78CF93020FFF7B1F900BF1037BD4683
:101DEC0080BD00BF1F85EB5180B582B000AF0023D2
:101DFC00FB71FB7943F00103FB71FB791946002061
:101E0C00FFF7ECF900BF0837BD4680BD80B500AFC9
:101E1C002020FFF76BF90020FFF790F92120FFF746
:101E2C0065F90020FFF78AF92220FFF75FF90020FF
:101E3C00FFF784F92320FFF759F90020FFF77EF90B
:101E4C0000BF80BD80B500AF2420FFF74FF94020C4
:101E5C00FFF774F92520FFF749F90120FFF76EF918
:101E6C0000BF80BD80B582B000AF0023FB80FB8833
:101E7C00DBB223F003037B71FB881B0A9BB2DBB242
:101E8C0003F01F033B712620FFF730F97B791846CE
:101E9C00FFF754F92720FFF729F93B791846FFF78C
:101EAC004DF900BF0837BD4680BD80B500AF282076
:101EBC00FFF71CF90020FFF741F92920FFF716F96D
:101ECC000020FFF73BF900BF80BD80B582B000AFAA
:101EDC000023FB71FB7943F00103FB715E20FFF7DC
:101EEC0005F9FB791846FFF729F900BF0837BD46FD
:101EFC0080BD80B500AF5F20FFF7F8F80020FFF73A
:101F0C001DF96020FFF7F2F80020FFF717F900BF6A
:101F1C0080BD80B582B000AF0023FB806120FFF74D
:101F2C00E5F8FB88DBB21846FFF708F96220FFF7EB
:101F3C00DDF8FB881B0A9BB2DBB203F01F03DBB29C
:101F4C001846FFF7FBF800BF0837BD4680BD80B5CB
:101F5C0082B000AF00237B605020FFF7C7F87B688E
:101F6C00DBB21846FFF7EAF85120FFF7BFF87B68A1
:101F7C001B0ADBB21846FFF7E1F85220FFF7B6F860
:101F8C007B681B0CDBB21846FFF7D8F85320FFF721
:101F9C00ADF87B681B0EDBB21846FFF7CFF800BF1D
:101FAC000837BD4680BD80B500AF5420FFF79EF8C2
:101FBC004020FFF7C3F85520FFF798F80120FFF7F2
:101FCC00BDF800BF80BD000080B483B000AF0346F5
:101FDC00FB7197F90730002B0BDBFB7903F01F0229
:101FEC00064997F907305B09012000FA02F241F823
:101FFC00232000BF0C37BD4680BC704700E100E0D9
:10200C0080B500AF124BDB69114A43F00103D36179
:10201C004FF0804341F61F429A624FF0804341F2E9
:10202C008732DA624FF08043DB684FF0804243F036
:10203C000103D3604FF080431B684FF0804243F0A4
:10204C00010313601C20FFF7BFFF00BF80BD00BF62
:10205C000010024080B400AF4FF080431B6903F0C6
:10206C000103002B0AD04FF080431B694FF08042D4
:10207C0023F001031361034B01221A7000BFBD460C
:10208C0080BC70478C00002080B483B000AF034646
:10209C00FB80FA8813469B0013445B005A1E4FF0DA
:1020AC008043DA624FF0804301225A6100BF0C3743
:1020BC00BD4680BC7047000080B582B000AF104BAD
:1020CC005B690F4A43F0010353610D4B5B6903F0ED
:1020DC0001037B607B68002200210D2001F047F991
:1020EC000D2001F060F9002200210E2001F03FF9D3
:1020FC000E2001F058F900BF0837BD4680BD00BF67
:10210C000010024080B588B000AF07F11003002228
:10211C001A605A609A60DA60594B9B69584A43F0CE
:10212C0010039361564B9B6903F01003FB60FB6833
:10213C00534B9B69524A43F020039361504B9B696C
:10214C0003F02003BB60BB684D4B9B694C4A43F0CA
:10215C00040393614A4B9B6903F004037B607B6827
:10216C00474B9B69464A43F008039361444B9B6978
:10217C0003F008033B603B6800224FF400514148D8
:10218C0001F065FD4FF400533B6101237B6100239B
:10219C00BB610223FB6107F110031946394801F0BA
:1021AC00BBFB4FF480633B6101237B610023BB616C
:1021BC000223FB6107F110031946334801F0ACFB15
:1021CC004FF400633B61314B7B610023BB6107F132
:1021DC00100319462C4801F09FFB08233B61012397
:1021EC007B610123BB610323FB6107F110031946DB
:1021FC00254801F091FB10233B6101237B610023F7
:10220C00BB610323FB6107F1100319461E4801F063
:10221C0083FB20233B6101237B610023BB610323F0
:10222C00FB6107F110031946174801F075FB0123F8
:10223C003B6100237B610123BB610223FB6107F13E
:10224C0010031946104801F067FB02233B61002381
:10225C007B610123BB610223FB6107F1100319466B
:10226C00094801F059FB00220021282001F07FF8D9
:10227C00282001F098F800BF2037BD4680BD00BF74
:10228C000010024000100140000C01400000111031
:10229C0080B483B000AF0346FB7197F907305B0045
:1022AC005BB223F055035AB2FB795B105BB203F0BF
:1022BC0055035BB213435BB2FB7197F907309B007C
:1022CC005BB223F033035AB2FB799B105BB203F081
:1022DC0033035BB213435BB2FB71FB791B09DBB2BB
:1022EC005AB297F907301B015BB213435BB2DBB2F6
:1022FC0018460C37BD4680BC7047000080B584B0D2
:10230C0000AF78600023FB6014E0FB68DB00114A2F
:10231C00134407221946786803F0F6FB0346002B9A
:10232C0005D10C4AFB68DB001344DB790EE0FB683B
:10233C000133FB60FB68712BE7D9074B7A68106897
:10234C0018609188927999809A713F2318461037BA
:10235C00BD4680BD4C6600089002002080B584B05C
:10236C0000AF0023FB601FE1FA6813469B00134487
:10237C00934AD35CFB72FA6813469B0013440133F7
:10238C008F4AD35CBB72FA6813469B00134402332A
:10239C008B4AD35C7B72FA6813469B00134403335D
:1023AC00874AD35C3B72FA6813469B001344043390
:1023BC00834AD35CFB7197F90A301B015AB27B7AC2
:1023CC001B115BB203F008035BB213435BB2DBB2CD
:1023DC001846FFF75DFF034618467A4AFB6813441C
:1023EC001B78194600F01F03D8B2774A0B46DB0066
:1023FC005B1A134402461A7097F90B30DB015AB280
:10240C00BB7A5B105BB203F078035BB213435BB235
:10241C00DBB21846FFF73CFF03461846694AFB68D7
:10242C0013441B78194600F01F03D8B2664A0B46BA
:10243C00DB005B1A1344013302461A70FB7A9B00D3
:10244C00DBB223F00703DBB21846FFF721FF03468C
:10245C0018465C4AFB6813441B78194600F01F03AE
:10246C00D8B2594A0B46DB005B1A134402330246BE
:10247C001A70FB7ADB105BB203F018035AB297F9AF
:10248C0007305B015BB213435BB2DBB21846FFF75C
:10249C00FFFE034618464B4AFB6813441B7819464B
:1024AC0000F01F03D8B2484A0B46DB005B1A1344FA
:1024BC00033302461A70FB7923F00703DBB218468C
:1024CC00FFF7E6FE034618463E4AFB6813441B78AA
:1024DC00194600F01F03D8B23B4A0B46DB005B1ACF
:1024EC001344043302461A703B7ADB00DBB2184605
:1024FC00FFF7CEFE03461846324AFB6813441B789E
:10250C00194600F01F03D8B22F4A0B46DB005B1AAA
:10251C001344053302461A7097F909309B015AB2DD
:10252C003B7A9B105BB203F038035BB213435BB294
:10253C00DBB21846FFF7ACFE03461846214AFB688F
:10254C0013441B78194600F01F03D8B21E4A0B46E1
:10255C00DB005B1A1344063302461A707B7A03F0D5
:10256C004003002B14BF01230023D9B2154AFB688A
:10257C0013441B781A46154B9954FB68242B10DC1A
:10258C00104AFB6813441B781A46104B9B5C002BBB
:10259C0014BF01230023D9B20D4AFB6813440A4629
:1025AC001A70FB680133FB60FB682E2B7FF7DCAEE7
:1025BC00084B00229A7400BF1037BD4680BD00BF87
:1025CC00980200201C66000884030020D004002020
:1025DC00680200200005002080B400AF274B1A7A57
:1025EC00274B5A70254BDA79254B9A70234B9A79E5
:1025FC00234BDA70214B5A79214B1A711F4B1A79E4
:10260C001F4B5A711D4BDA781D4B9A711B4B9A78E4
:10261C001B4BDA71194B5A78194B1A72174B1A78E3
:10262C00174B5A72154B93F82320154B9A72134B78
:10263C0093F82220124BDA72104B93F82120104B96
:10264C001A730E4B93F820200D4B5A730B4BDA7FF9
:10265C000B4B9A73094B9A7F094BDA73074B5A7FD2
:10266C00074B1A74054B1A7F054B5A74034BDA7ED1
:10267C00034B9A7400BFBD4680BC704768020020B3
:10268C0054020020F0B591B008AF80220021974889
:10269C0003F04AFA80220021954803F045FA802283
:1026AC000021944803F040FAFFF796FF0023FB61EA
:1026BC008BE0FA691346DB009B1A8F4A1344FB60CC
:1026CC00F868FFF71BFE0346FB72FB69002B03D176
:1026DC008A4AFB7A537075E0FB69012B03D1874A58
:1026EC00FB7A93706EE0FB69022B03D1834AFB7A71
:1026FC00D37067E0FB69032B03D1804AFB7A13711B
:10270C0060E0FB69042B03D17C4AFB7A537159E0DE
:10271C00FB69052B03D1794AFB7A937152E0FB6973
:10272C00062B03D1754AFB7AD3714BE0FB69072B5F
:10273C0003D1724AFB7A137244E0FB69082B03D174
:10274C006E4AFB7A53723DE0FB69092B03D16B4A4D
:10275C00FB7A937236E0FB690A2B03D1674AFB7A4A
:10276C00D3722FE0FB690B2B03D1644AFB7A1373F2
:10277C0028E0FB690C2B03D1604AFB7A537321E0F0
:10278C00FB690D2B03D15D4AFB7A93731AE0FB694D
:10279C000E2B03D1594AFB7AD37313E0FB690F2B31
:1027AC0003D1564AFB7A13740CE0FB69102B03D14E
:1027BC00524AFB7A537405E0FB69112B02D14F4A44
:1027CC00FB7A9374FB690133FB61FB69112B7FF777
:1027DC0070AF4B4B00229A741223BB612AE1BA6989
:1027EC001346DB009B1A444A13447B617869FFF75C
:1027FC0085FD0346FB74BB69122B03D13F4AFB7C5E
:10280C00D374DEE0BB69132B03D13C4AFB7C1375FC
:10281C00D7E0BB69142B03D1384AFB7C5375D0E04D
:10282C00BB69152B03D1354AFB7C9375C9E0BB6999
:10283C00162B03D1314AFB7CD375C2E0BB69172B35
:10284C0003D12E4AFB7C1376BBE0BB69182B03D15A
:10285C002A4AFB7C5376B4E0BB69192B03D1274A77
:10286C00FB7C9376ADE0BB691A2B03D1234AFB7C2E
:10287C00D376A6E0BB691B2B03D1204AFB7C1377D4
:10288C009FE0BB691C2B03D11C4AFB7C537798E05F
:10289C00BB691D2B03D1194AFB7C937791E0BB6973
:1028AC001E2B03D1154AFB7CD3778AE0BB691F2B07
:1028BC0004D1124AFB7C82F8203082E0BB69202BC9
:1028CC0004D10E4AFB7C82F821307AE0BB69212BC3
:1028DC0004D10A4AFB7C82F8223072E0BB69222BBD
:1028EC0010D1064AFB7C82F823306AE0A400002059
:1028FC0024010020A40100208403002024020020D5
:10290C0090000020BB69232B04D1504AFB7C82F839
:10291C00243056E0BB69242B04D14C4AFB7C82F852
:10292C0025304EE0BB69252B04D1484AFB7C82F84C
:10293C00263046E0BB69262B04D1444AFB7C82F846
:10294C0027303EE0BB69272B04D1404AFB7C82F840
:10295C00283036E0BB69282B04D13C4AFB7C82F83A
:10296C0029302EE0BB69292B04D1384AFB7C82F834
:10297C002A3026E0BB692A2B04D1344AFB7C82F82E
:10298C002B301EE0BB692B2B04D1304AFB7C82F828
:10299C002C3016E0BB692C2B04D12C4AFB7C82F822
:1029AC002D300EE0BB692D2B04D1284AFB7C82F81C
:1029BC002E3006E0BB692E2B03D1244AFB7C82F817
:1029CC002F302348FDF79CFB0346214A9C182048D6
:1029DC00FDF796FB0346C3F180017B691B781A4611
:1029EC007B6901331B7818467B6902331B781D46C3
:1029FC007B6903331B781E467B6904331B787B6031
:102A0C007B6905331B783B607B6906331B78069327
:102A1C00D7F800C0CDF814C07B68049303960295D8
:102A2C0001900092BB690B4A204603F037F8BB6952
:102A3C000133BB61BB692E2B7FF7D1AE064B002255
:102A4C005A7700BF2437BD46F0BD00BF24020020DA
:102A5C0024010020D86500089000002080B500AF4C
:102A6C0000F028FB00F09AF8FFF74CFBFFF724FB73
:102A7C0000F0DEF800F012F9FFF7C2FA012208218B
:102A8C003D4801F0E4F8002210213B4801F0DFF84A
:102A9C000121394801F0C4F80346012B07D1374B0B
:102AAC006FF07F421A60364B364A1A6006E0334BA1
:102ABC00344A1A60324B6FF07F421A6002212E4862
:102ACC0001F0AEF80346012B04D12F4B4FF47F429B
:102ADC001A6003E02C4B4FF6FF721A60FEF7EEFA09
:102AEC004FF47A7000F048FBFEF72AF8642000F0EF
:102AFC0043FBFEF787FB0A2000F03EFB2320FFF789
:102B0C00C3FA052000F038FB6420FFF719F91F4BBE
:102B1C0001221A70FFF722FCFFF7B4FD1C4B0122B7
:102B2C001A701C4B1B78DBB2002BF3D0184B1B78A4
:102B3C00DBB2002BEED0174B00221A70144B002284
:102B4C001A704FF40051144801F099F8FDF7C8FEC3
:102B5C00062000F011FBFDF721FB062000F00CFB1A
:102B6C00FDF78AFC062000F007FBFDF7B5FD0620FB
:102B7C0000F002FBCEE700BF000C0140000000207B
:102B8C000400002000FFFF0008000020FF040020CC
:102B9C008D0000208C0000200010014080B590B00A
:102BAC0000AF07F1180328220021184602F0BCFFE1
:102BBC003B1D00221A605A609A60DA601A61012388
:102BCC00BB614FF48033FB6100233B620123BB628A
:102BDC0002237B634FF48033BB634FF4E013FB633E
:102BEC0007F11803184601F085F80346002B01D0B5
:102BFC0000F019F80F237B600223BB600023FB60FD
:102C0C004FF480633B6100237B613B1D022118461E
:102C1C0001F0F2FA0346002B01D000F004F800BFDB
:102C2C004037BD4680BD80B400AF72B600BFFEE732
:102C3C0080B500AF174B184A1A60164B4FF48272CE
:102C4C005A60144B00229A60124B0022DA60114B2E
:102C5C0002221A610F4B01225A610E4B4FF4007283
:102C6C009A610C4B1022DA610A4B00221A62094B52
:102C7C0000225A62074B00229A62064B0A22DA6241
:102C8C00044801F029FC0346002B01D0FFF7CBFFD1
:102C9C0000BF80BD300500200030014080B500AF82
:102CAC00164B174A1A60154B00225A60134B4FF4FF
:102CBC0080629A60114B0022DA60104B02221A617A
:102CCC000E4B01225A610D4B4FF400729A610B4B63
:102CDC0000221A62094B00225A62084B00229A62A7
:102CEC00064B0A22DA62054801F0F6FB0346002B7C
:102CFC0001D0FFF798FF00BF80BD00BF8805002002
:102D0C000038004080B58AB000AF786007F1180336
:102D1C0000221A605A609A60DA607B681B686B4A02
:102D2C00934276D16A4B9B69694A43F48053936111
:102D3C00674B9B6903F480537B617B69644B9B6994
:102D4C00634A43F004039361614B9B6903F00403F2
:102D5C003B613B692023BB610223FB6100233B6287
:102D6C0003237B6207F1180319465A4800F0D4FD7F
:102D7C004023BB610023FB6101233B6203237B6285
:102D8C0007F118031946534800F0C6FD8023BB61B8
:102D9C000223FB6100233B6203237B6207F11803D0
:102DAC0019464C4800F0B8FD1023BB610123FB61B0
:102DBC0000233B6203237B6207F118031946454845
:102DCC0000F0AAFD444B454A1A60434B10225A604E
:102DDC00414B00229A60404B8022DA603E4B00222D
:102DEC001A613D4B00225A613B4B00229A613A4BCF
:102DFC000022DA61384800F0F1FA0346002B01D0CA
:102E0C00FFF711FF7B68344A9A64334A7B6853623C
:102E1C0057E07B681B68324A934252D12C4BDB69DA
:102E2C002B4A43F48043D361294BDB6903F4804381
:102E3C00FB60FB68264B9B69254A43F008039361B2
:102E4C00234B9B6903F00803BB60BB684FF4204322
:102E5C00BB610023FB6100233B6207F11803194699
:102E6C00204800F059FD204B204A1A601E4B0022CE
:102E7C005A601D4B00229A601B4B8022DA601A4B61
:102E8C0000221A61184B00225A61174B00229A61DA
:102E9C00154B0022DA61144800F0A0FA0346002B0F
:102EAC0001D0FFF7C0FE7B680F4ADA640E4A7B68DC
:102EBC00536200220021242000F059FA242000F053
:102ECC0072FA00BF2837BD4680BD00BF00300140FC
:102EDC000010024000080140E005002030000240D4
:102EEC0000380040000C0140240600204400024041
:102EFC0080B485B000AF154B9B69144A43F00103B5
:102F0C009361124B9B6903F00103BB60BB680F4BD1
:102F1C00DB690E4A43F08053D3610C4BDB6903F041
:102F2C0080537B607B680A4B5B68FB60FB6823F01B
:102F3C00E063FB60FB6843F00073FB60044AFB68D2
:102F4C00536000BF1437BD4680BC70470010024070
:102F5C000000014080B400AFFEE780B400AFFEE794
:102F6C0080B400AFFEE780B400AFFEE780B400AFE2
:102F7C00FEE780B400AF00BFBD4680BC704780B494
:102F8C0000AF00BFBD4680BC704780B400AF00BF2F
:102F9C00BD4680BC704780B500AF00F0D1F800BFD3
:102FAC0080BD000080B500AF024800F081FB00BF7F
:102FBC0080BD00BFE005002080B500AF024800F0E6
:102FCC0077FB00BF80BD00BF2406002080B500AF9A
:102FDC00024802F0E3F900BF80BD00BF8805002065
:102FEC0080B500AF114B1B78002B19D0104802F0A4
:102FFC0095F90F4802F0AEF80E4B1B690D4A43F4DD
:10300C00804313610B4B1B690A4A23F48043136101
:10301C00074801F061FAEB220749054801F0D0FEA0
:10302C004FF4006000F044FE00BF80BDFF040020A0
:10303C0088050020001002409802002080B586B060
:10304C0000AF7860144A154BD31A7B617B693B61E6
:10305C00134B1B68002B02D1114B124A1A60104BF8
:10306C001A687B6813443A699A4207D202F064FDED
:10307C0003460C221A604FF0FF3309E0084B1B6823
:10308C00FB60074B1A687B681344054A1360FB68A6
:10309C0018461837BD4680BD0050002000040000C3
:1030AC0068060020B807002080B400AF00BFBD4602
:1030BC0080BC704780B500AF084B1B68074A43F0D3
:1030CC0010031360032000F047F90F2000F008F8FC
:1030DC00FFF70EFF0023184680BD00BF0020024002
:1030EC0080B582B000AF7860124B1A68124B1B7817
:1030FC0019464FF47A73B3FBF1F3B2FBF3F31846B2
:10310C0000F05FF90346002B01D001230EE07B6831
:10311C000F2B0AD8002279684FF0FF3000F027F906
:10312C00064A7B681360002300E001231846083729
:10313C00BD4680BD100000201800002014000020A7
:10314C0080B400AF054B1B781A46054B1B68134423
:10315C00034A136000BFBD4680BC704718000020B6
:10316C006C06002080B400AF024B1B681846BD46AD
:10317C0080BC70476C06002080B584B000AF7860CE
:10318C00FFF7F0FFB8607B68FB60FB68B3F1FF3FB3
:10319C0005D00A4B1B781A46FB681344FB6000BF32
:1031AC00FFF7E0FF0246BB68D31AFA689A42F7D8D9
:1031BC0000BF00BF1037BD4680BD00BF1800002007
:1031CC0080B485B000AF78607B6803F00703FB60C8
:1031DC000C4BDB68BB60BA684FF6FF031340BB6057
:1031EC00FB681A02BB68134343F0BF6343F400331C
:1031FC00BB60044ABB68D36000BF1437BD4680BCBB
:10320C00704700BF00ED00E080B400AF044BDB68FA
:10321C001B0A03F007031846BD4680BC704700BF6D
:10322C0000ED00E080B483B000AF0346FB7197F96A
:10323C000730002B0BDBFB7903F01F02064997F9D3
:10324C0007305B09012000FA02F241F8232000BF8D
:10325C000C37BD4680BC704700E100E080B483B001
:10326C0000AF03463960FB7197F90730002B0ADB7E
:10327C003B68DAB20C4997F907301201D2B20B4411
:10328C0083F800230AE03B68DAB20849FB7903F0C3
:10329C000F03043B1201D2B20B441A7600BF0C3759
:1032AC00BD4680BC704700BF00E100E000ED00E0CF
:1032BC0080B489B000AFF860B9607A60FB6803F045
:1032CC000703FB61FB69C3F10703042B28BF04232D
:1032DC00BB61FB690433062B02D9FB69033B00E09D
:1032EC0000237B614FF0FF32BB6902FA03F3DA4330
:1032FC00BB681A407B699A404FF0FF317B6901FA39
:10330C0003F3D9437B680B40134318462437BD465F
:10331C0080BC704780B582B000AF78607B68013BA1
:10332C00B3F1807F01D301230FE00A4A7B68013B94
:10333C0053600F214FF0FF30FFF790FF054B002239
:10334C009A60044B07221A60002318460837BD46C2
:10335C0080BD00BF10E000E080B582B000AF7860A7
:10336C007868FFF72DFF00BF0837BD4680BD80B5DC
:10337C0086B000AF0346B9607A60FB7300237B61B3
:10338C00FFF742FF78617A68B9687869FFF790FFB8
:10339C00024697F90F3011461846FFF75FFF00BF42
:1033AC001837BD4680BD80B582B000AF0346FB71B7
:1033BC0097F907301846FFF735FF00BF0837BD46B1
:1033CC0080BD80B582B000AF78607868FFF7A2FF4F
:1033DC00034618460837BD4680BD000080B485B052
:1033EC0000AF78600023FB607B68002B01D10123C8
:1033FC0043E07B681B681A46224B1344224AA2FB0B
:10340C0003231B099A007B681A647B681F4ADA63E2
:10341C007B68022283F821207B681B681B68FB6099
:10342C00FB6823F47F5323F03003FB607B685A68FE
:10343C007B689B681A437B68DB681A437B681B6953
:10344C001A437B685B691A437B689B691A437B68E8
:10345C00DB691343FA681343FB607B681B68FA68EB
:10346C001A607B6800229A637B68012283F8212012
:10347C007B68002283F82020002318461437BD46B1
:10348C0080BC7047F8FFFDBFCDCCCCCC0000024017
:10349C0080B586B000AFF860B9607A603B600023FD
:1034AC00FB75FB6893F82030012B01D102234AE015
:1034BC00FB68012283F82020FB6893F82130012B54
:1034CC003AD1FB68022283F82120FB6800229A6320
:1034DC00FB681B681A68FB681B6822F001021A6003
:1034EC003B687A68B968F86800F0E8F9FB68DB6A51
:1034FC00002B08D0FB681B681A68FB681B6842F03D
:10350C000E021A600FE0FB681B681A68FB681B68E8
:10351C0022F004021A60FB681B681A68FB681B68BF
:10352C0042F00A021A60FB681B681A68FB681B6889
:10353C0042F001021A6005E0FB68002283F82020AB
:10354C000223FB75FB7D18461837BD4680BD80B441
:10355C0085B000AF78600023FB737B6893F8213053
:10356C00022B08D07B6804229A637B68002283F8C4
:10357C002020012320E07B681B681A687B681B688D
:10358C0022F00E021A607B681B681A687B681B6845
:10359C0022F001021A607B681A6C7B68DB6B0121DC
:1035AC0001FA02F25A607B68012283F821207B68C1
:1035BC00002283F82020FB7B18461437BD4680BCC4
:1035CC007047000080B584B000AF78600023FB73B7
:1035DC007B6893F82130022B05D07B6804229A6318
:1035EC000123FB7351E07B681B681A687B681B68BE
:1035FC0022F00E021A607B681B681A687B681B68D5
:10360C0022F001021A607B681B68224A934229D07F
:10361C007B681B68204A934222D07B681B681F4A38
:10362C0093421AD07B681B681D4A934212D07B6868
:10363C001B681C4A93420AD07B681B681A4A934247
:10364C0002D14FF480130EE04FF080730BE04FF477
:10365C00803308E04FF4805305E04FF4807302E0B0
:10366C00102300E00123114A53607B68012283F888
:10367C0021207B68002283F820207B685B6B002B69
:10368C0003D07B685B6B78689847FB7B18461037D8
:10369C00BD4680BD080002401C00024030000240C4
:1036AC0044000240580002406C00024000000240FE
:1036BC0080B584B000AF78607B68DB6B1B68FB6007
:1036CC007B681B681B68BB607B681B6C04229A4080
:1036DC00FB681340002B4FD0BB6803F00403002B96
:1036EC004AD07B681B681B6803F02003002B07D1B2
:1036FC007B681B681A687B681B6822F004021A60DE
:10370C007B681B68664A934229D07B681B68654AB4
:10371C00934222D07B681B68634A93421AD07B6821
:10372C001B68624A934212D07B681B68604A9342C2
:10373C000AD07B681B685F4A934202D14FF4800326
:10374C000EE04FF080630BE04FF4802308E04FF461
:10375C00804305E04FF4806302E0402300E0042343
:10376C00554A53607B68DB6A002B00F094807B68C1
:10377C00DB6A786898478EE07B681B6C02229A4063
:10378C00FB681340002B56D0BB6803F00203002BE0
:10379C0051D07B681B681B6803F02003002B0BD1F6
:1037AC007B681B681A687B681B6822F00A021A6027
:1037BC007B68012283F821207B681B68384A93427E
:1037CC0029D07B681B68374A934222D07B681B68E0
:1037DC00354A93421AD07B681B68344A934212D004
:1037EC007B681B68324A93420AD07B681B68314A5B
:1037FC00934202D14FF400130EE04FF000730BE034
:10380C004FF4003308E04FF4005305E04FF400731D
:10381C0002E0202300E00223274A53607B68002249
:10382C0083F820207B689B6A002B34D07B689B6AD2
:10383C00786898472FE07B681B6C08229A40FB68DD
:10384C001340002B28D0BB6803F00803002B23D0B7
:10385C007B681B681A687B681B6822F00E021A6072
:10386C007B681A6C7B68DB6B012101FA02F25A60EF
:10387C007B6801229A637B68012283F821207B6894
:10388C00002283F820207B681B6B002B04D07B6804
:10389C001B6B7868984700BF00BF1037BD4680BDD2
:1038AC00080002401C00024030000240440002406C
:1038BC00580002406C0002400000024080B485B009
:1038CC0000AFF860B9607A603B60FB681A6CFB680B
:1038DC00DB6B012101FA02F25A60FB681B683A6843
:1038EC005A60FB685B68102B08D1FB681B687A6810
:1038FC009A60FB681B68BA68DA6007E0FB681B68B3
:10390C00BA689A60FB681B687A68DA6000BF143783
:10391C00BD4680BC7047000080B48BB000AF7860AF
:10392C00396000237B6200233B6269E101227B6AE0
:10393C0002FA03F3FB613B681B68FA691340BB6135
:10394C00BA69FB699A4240F058813B685B689A4AB5
:10395C0093425ED0984A934275D8984A934258D075
:10396C00964A93426FD8964A934252D0944A9342C5
:10397C0069D8944A93424CD0924A934263D8924A63
:10398C00934246D0904A93425DD8122B2AD8122BE0
:10399C0059D801A252F823F01F3A0008F93900084F
:1039AC000B3A00084D3A0008533A0008533A000805
:1039BC00533A0008533A0008533A0008533A0008A7
:1039CC00533A0008533A0008533A0008533A000897
:1039DC00533A0008533A0008533A0008013A0008D9
:1039EC00153A0008794A934213D02CE03B68DB6807
:1039FC003B6229E03B68DB6804333B6224E03B68B4
:103A0C00DB6808333B621FE03B68DB680C333B62CE
:103A1C001AE03B689B68002B02D104233B6213E045
:103A2C003B689B68012B05D108233B627B68FA69D4
:103A3C001A6109E008233B627B68FA695A6103E06A
:103A4C0000233B6200E000BFBB69FF2B01D87B6801
:103A5C0001E07B6804337B61BB69FF2B02D87B6A76
:103A6C009B0002E07B6A083B9B003B617B691A6808
:103A7C000F213B6901FA03F3DB431A40396A3B69B6
:103A8C0001FA03F31A437B691A603B685B6803F025
:103A9C008053002B00F0B1804D4B9B694C4A43F096
:103AAC00010393614A4B9B6903F00103BB60BB6844
:103ABC00484A7B6A9B08023352F82330FB607B6ACE
:103ACC0003F003039B000F2202FA03F3DB43FA68B3
:103ADC001340FB607B68404A934213D07B683F4A9B
:103AEC0093420DD07B683E4A934207D07B683D4A97
:103AFC00934201D1032306E0042304E0022302E0F5
:103B0C00012300E000237A6A02F003029200934042
:103B1C00FA681343FB602F497B6A9B080233FA68EF
:103B2C0041F823203B685B6803F48033002B06D0FC
:103B3C002D4B1A682C49BB6913430B6006E02A4BCA
:103B4C001A68BB69DB43284913400B603B685B6810
:103B5C0003F40033002B06D0234B5A682249BB696F
:103B6C0013434B6006E0204B5A68BB69DB431E498C
:103B7C0013404B603B685B6803F48013002B06D04A
:103B8C00194B9A681849BB6913438B6006E0164BB6
:103B9C009A68BB69DB43144913408B603B685B68D4
:103BAC0003F40013002B21D00F4BDA680E49BB69CC
:103BBC001343CB6021E000BF000032100000311035
:103BCC000000221000002110000012100000111043
:103BDC00001002400000014000080140000C0140B0
:103BEC000010014000140140000401400B4BDA6846
:103BFC00BB69DB4309491340CB607B6A01337B62B1
:103C0C003B681A687B6A22FA03F3002B7FF48EAEB2
:103C1C0000BF00BF2C37BD4680BC7047000401407C
:103C2C0080B485B000AF78600B467B807B689A6867
:103C3C007B881340002B02D00123FB7301E000238F
:103C4C00FB73FB7B18461437BD4680BC704780B4B1
:103C5C0083B000AF78600B467B8013467B707B781B
:103C6C00002B03D07A887B681A6103E07B881A04E6
:103C7C007B681A6100BF0C37BD4680BC704780B4AE
:103C8C0085B000AF78600B467B807B68DB68FB609F
:103C9C007A88FB6813401A04FB68D9437B880B4075
:103CAC001A437B681A6100BF1437BD4680BC70474D
:103CBC0080B582B000AF0346FB80084B5A69FB8885
:103CCC001340002B06D0054AFB885361FB8818462D
:103CDC0000F006F800BF0837BD4680BD0004014067
:103CEC0080B483B000AF0346FB8000BF0C37BD46E9
:103CFC0080BC704780B586B000AF78607B68002BC5
:103D0C0001D1012372E27B681B6803F00103002BD5
:103D1C0000F08780924B5B6803F00C03042B0CD0F3
:103D2C008F4B5B6803F00C03082B12D18C4B5B6838
:103D3C0003F48033B3F5803F0BD1894B1B6803F43C
:103D4C000033002B6CD07B685B68002B68D101239F
:103D5C004CE27B685B68B3F5803F06D1804B1B68F7
:103D6C007F4A43F4803313602EE07B685B68002B42
:103D7C000CD17B4B1B687A4A23F480331360784B4D
:103D8C001B68774A23F4802313601DE07B685B6813
:103D9C00B3F5A02F0CD1724B1B68714A43F48023EE
:103DAC0013606F4B1B686E4A43F4803313600BE057
:103DBC006B4B1B686A4A23F480331360684B1B6897
:103DCC00674A23F4802313607B685B68002B13D055
:103DDC00FFF7C8F9386108E0FFF7C4F902463B6900
:103DEC00D31A642B01D9032300E25D4B1B6803F447
:103DFC000033002BF0D014E0FFF7B4F9386108E081
:103E0C00FFF7B0F902463B69D31A642B01D903239F
:103E1C00ECE1534B1B6803F40033002BF0D100E0B2
:103E2C0000BF7B681B6803F00203002B63D04C4B74
:103E3C005B6803F00C03002B0BD0494B5B6803F061
:103E4C000C03082B1CD1464B5B6803F48033002B0E
:103E5C0016D1434B1B6803F00203002B05D07B6883
:103E6C001B69012B01D00123C0E13D4B1B6823F0E2
:103E7C00F8027B685B69DB00394913430B603AE05D
:103E8C007B681B69002B20D0364B01221A60FFF790
:103E9C0069F9386108E0FFF765F902463B69D31A06
:103EAC00022B01D90323A1E12D4B1B6803F0020364
:103EBC00002BF0D02A4B1B6823F0F8027B685B695F
:103ECC00DB00274913430B6015E0264B00221A60D8
:103EDC00FFF748F9386108E0FFF744F902463B69FF
:103EEC00D31A022B01D9032380E11D4B1B6803F06D
:103EFC000203002BF0D17B681B6803F00803002B36
:103F0C003AD07B689B69002B19D0174B01221A60A1
:103F1C00FFF728F9386108E0FFF724F902463B69FE
:103F2C00D31A022B01D9032360E10D4B5B6A03F01A
:103F3C000203002BF0D0012000F0B0FA1CE00A4B79
:103F4C0000221A60FFF70EF938610FE0FFF70AF94B
:103F5C0002463B69D31A022B08D9032346E100BF62
:103F6C00001002400000424280044242924B5B6AC5
:103F7C0003F00203002BE9D17B681B6803F00403F8
:103F8C00002B00F0A6800023FB758B4BDB6903F044
:103F9C008053002B0DD1884BDB69874A43F080534B
:103FAC00D361854BDB6903F08053BB60BB68012395
:103FBC00FB75824B1B6803F48073002B18D17F4B6D
:103FCC001B687E4A43F480731360FFF7CBF83861AB
:103FDC0008E0FFF7C7F802463B69D31A642B01D9F6
:103FEC00032303E1754B1B6803F48073002BF0D0A3
:103FFC007B68DB68012B06D16F4B1B6A6E4A43F062
:10400C00010313622DE07B68DB68002B0CD16A4B3B
:10401C001B6A694A23F001031362674B1B6A664AE9
:10402C0023F0040313621CE07B68DB68052B0CD1C6
:10403C00614B1B6A604A43F0040313625E4B1B6ABC
:10404C005D4A43F0010313620BE05B4B1B6A5A4A57
:10405C0023F001031362584B1B6A574A23F00403E5
:10406C0013627B68DB68002B15D0FFF77BF8386197
:10407C000AE0FFF777F802463B69D31A41F288321F
:10408C00934201D90323B1E04B4B1B6A03F00203AB
:10409C00002BEED014E0FFF765F838610AE0FFF76B
:1040AC0061F802463B69D31A41F28832934201D936
:1040BC0003239BE0404B1B6A03F00203002BEED161
:1040CC00FB7D012B05D13C4BDB693B4A23F0805334
:1040DC00D3617B68DB69002B00F08780364B5B6813
:1040EC0003F00C03082B61D07B68DB69022B46D1F3
:1040FC00334B00221A60FFF735F8386108E0FFF700
:10410C0031F802463B69D31A022B01D903236DE027
:10411C00294B1B6803F00073002BF0D17B681B6AE2
:10412C00B3F5803F08D1244B5B6823F400327B68E5
:10413C009B68214913434B601F4B5B6823F474123B
:10414C007B68196A7B685B6A0B431B4913434B60A2
:10415C001B4B01221A60FFF705F8386108E0FFF7E6
:10416C0001F802463B69D31A022B01D903233DE027
:10417C00114B1B6803F00073002BF0D035E0104B93
:10418C0000221A60FEF7EEFF386108E0FEF7EAFF46
:10419C0002463B69D31A022B01D9032326E0064BB6
:1041AC001B6803F00073002BF0D11EE07B68DB6909
:1041BC00012B07D1012319E00010024000700040D0
:1041CC00600042420B4B5B68FB60FB6803F480327F
:1041DC007B681B6A9A4206D1FB6803F470127B68F9
:1041EC005B6A9A4201D0012300E00023184618377D
:1041FC00BD4680BD0010024080B584B000AF786031
:10420C0039607B68002B01D10123D0E06A4B1B681D
:10421C0003F007033A689A4210D9674B1B6823F0E6
:10422C00070265493B6813430B60634B1B6803F043
:10423C0007033A689A4201D00123B8E07B681B68F7
:10424C0003F00203002B20D07B681B6803F00403EF
:10425C00002B05D0594B5B68584A43F4E06353601C
:10426C007B681B6803F00803002B05D0534B5B687D
:10427C00524A43F460535360504B5B6823F0F00296
:10428C007B689B684D4913434B607B681B6803F04C
:10429C000103002B40D07B685B68012B07D1474B97
:1042AC001B6803F40033002B15D101237FE07B68DE
:1042BC005B68022B07D1414B1B6803F00073002B8A
:1042CC0009D1012373E03D4B1B6803F00203002B63
:1042DC0001D101236BE0394B5B6823F003027B684F
:1042EC005B68364913434B60FEF73CFFF8600AE00D
:1042FC00FEF738FF0246FB68D31A41F2883293422C
:10430C0001D9032353E02D4B5B6803F00C027B684F
:10431C005B689B009A42EBD1274B1B6803F00703A9
:10432C003A689A4210D2244B1B6823F007022249A8
:10433C003B6813430B60204B1B6803F007033A6880
:10434C009A4201D0012332E07B681B6803F004031E
:10435C00002B08D0194B5B6823F4E0627B68DB68A8
:10436C00164913434B607B681B6803F00803002B52
:10437C0009D0124B5B6823F460527B681B69DB002D
:10438C000E4913434B6000F021F802460B4B5B685F
:10439C001B0903F00F030A49CB5C22FA03F3094A09
:1043AC001360094B1B681846FEF79AFE002318464B
:1043BC001037BD4680BD00BF0020024000100240F7
:1043CC00DC690008100000201400002090B48AB0B2
:1043DC0000AF294B3C1D0FCB84E80F0040F20123AA
:1043EC003B800023FB610023BB6100237B62002325
:1043FC007B6100233B62214B5B68FB61FB6903F033
:10440C000C03042B02D0082B03D02BE01C4B3B627B
:10441C002BE0FB699B0C03F00F0328333B4413F890
:10442C00243C7B61FB6903F48033002B12D0134BCB
:10443C005B685B0C03F0010328333B4413F8283C06
:10444C00BB617B690E4A03FB02F2BB69B2FBF3F35F
:10445C007B6204E07B690B4A02FB03F37B627B6AA1
:10446C003B6202E0064B3B6200BF3B6A18462837B2
:10447C00BD4690BC704700BF0C660008001002409F
:10448C0000127A0000093D0080B400AF024B1B689B
:10449C001846BD4680BC70471000002080B485B023
:1044AC0000AF78600A4B1B680A4AA2FB03235B0A25
:1044BC007A6802FB03F3FB6000BFFB685A1EFA60CC
:1044CC00002BF9D100BF00BF1437BD4680BC70472C
:1044DC0010000020D34D621080B582B000AF786020
:1044EC007B68002B01D1012376E07B685B6A002B93
:1044FC0008D17B685B68B3F5827F09D07B680022AA
:10450C00DA6105E07B6800221A617B6800225A613F
:10451C007B6800229A627B6893F85130DBB2002BE7
:10452C0006D17B68002283F850207868FEF7EAFBFE
:10453C007B68022283F851207B681B681A687B68B1
:10454C001B6822F040021A607B685B6803F482727D
:10455C007B689B6803F404431A437B68DB6803F4B1
:10456C0000631A437B681B6903F002031A437B68E0
:10457C005B6903F001031A437B689B6903F40073C6
:10458C001A437B68DB6903F038031A437B681B6AA8
:10459C0003F0800342EA03017B689B6A03F4005238
:1045AC007B681B680A431A607B689B691A0C7B68E2
:1045BC001B6802F004025A607B681B68DA697B682E
:1045CC001B6822F40062DA617B6800225A657B6802
:1045DC00012283F85120002318460837BD4680BDC0
:1045EC0080B588B000AFF860B9603B601346FB80C3
:1045FC000023FB77FB6893F85030012B01D1022389
:10460C0026E1FB68012283F85020FEF7ABFDB86170
:10461C00FB88FB82FB6893F85130DBB2012B02D094
:10462C000223FB770BE1BB68002B02D0FB88002B2D
:10463C0002D10123FB7702E1FB68032283F85120AE
:10464C00FB6800225A65FB68BA681A63FB68FA8833
:10465C009A86FB68FA88DA86FB6800229A63FB6804
:10466C0000229A87FB680022DA87FB6800225A64D2
:10467C00FB6800221A64FB689B68B3F5004F0FD1EE
:10468C00FB681B681A68FB681B6822F040021A6002
:10469C00FB681B681A68FB681B6842F480421A604E
:1046AC00FB681B681B6803F04003402B07D0FB68BA
:1046BC001B681A68FB681B6842F040021A60FB68B2
:1046CC00DB68B3F5006F4BD1FB685B68002B02D045
:1046DC00FB8A012B3ED1FB681B6B1A88FB681B689D
:1046EC00DA60FB681B6B9A1CFB681A63FB68DB8E39
:1046FC009BB2013B9AB2FB68DA862BE0FB681B6825
:10470C009B6803F00203022B12D1FB681B6B1A8807
:10471C00FB681B68DA60FB681B6B9A1CFB681A63EE
:10472C00FB68DB8E9BB2013B9AB2FB68DA8611E028
:10473C00FEF718FD0246BB69D31A3A689A4203D8B1
:10474C003B68B3F1FF3F02D13B68002B02D103233E
:10475C00FB7774E0FB68DB8E9BB2002BCED14CE078
:10476C00FB685B68002B02D0FB8A012B40D1FB68F5
:10477C001A6BFB681B680C3312781A70FB681B6B86
:10478C005A1CFB681A63FB68DB8E9BB2013B9AB226
:10479C00FB68DA862CE0FB681B689B6803F002035D
:1047AC00022B13D1FB681A6BFB681B680C33127855
:1047BC001A70FB681B6B5A1CFB681A63FB68DB8E58
:1047CC009BB2013B9AB2FB68DA8611E0FEF7CAFC99
:1047DC000246BB69D31A3A689A4203D83B68B3F1D4
:1047EC00FF3F02D13B68002B02D10323FB7726E06D
:1047FC00FB68DB8E9BB2002BCDD1BA693968F868A7
:10480C0001F0A4F80346002B02D0FB6820225A6565
:10481C00FB689B68002B0AD100233B61FB681B687B
:10482C00DB683B61FB681B689B683B613B69FB6811
:10483C005B6D002B02D00123FB7700E000BFFB680F
:10484C00012283F85120FB68002283F85020FB7F63
:10485C0018462037BD4680BD80B588B002AFF860E1
:10486C00B9603B601346FB800023FB75FB685B68FB
:10487C00B3F5827F12D1FB689B68002B0ED1FB68CD
:10488C00042283F85120FA883B6800931346BA68D7
:10489C00B968F86800F0F1F80346EAE0FB6893F8B1
:1048AC005030012B01D10223E3E0FB68012283F895
:1048BC005020FEF757FC3861FB6893F85130DBB29F
:1048CC00012B02D00223FB75CAE0BB68002B02D07F
:1048DC00FB88002B02D10123FB75C1E0FB6804228D
:1048EC0083F85120FB6800225A65FB68BA689A630A
:1048FC00FB68FA889A87FB68FA88DA87FB680022DB
:10490C001A63FB6800229A86FB680022DA86FB6831
:10491C0000221A64FB6800225A64FB689B68B3F59A
:10492C00004F0FD1FB681B681A68FB681B6822F0EC
:10493C0040021A60FB681B681A68FB681B6822F44B
:10494C0080421A60FB681B681B6803F04003402B15
:10495C0007D0FB681B681A68FB681B6842F04002B2
:10496C001A60FB68DB68002B62D12EE0FB681B68C9
:10497C009B6803F00103012B15D1FB681B6803F145
:10498C000C02FB689B6B1278D2B21A70FB689B6BA3
:10499C005A1CFB689A63FB68DB8F9BB2013B9AB293
:1049AC00FB68DA8711E0FEF7DDFB02463B69D31AA0
:1049BC003A689A4203D83B68B3F1FF3F02D13B6897
:1049CC00002B02D10323FB754AE0FB68DB8F9BB203
:1049DC00002BCBD131E0FB681B689B6803F0010313
:1049EC00012B13D1FB681B68DA68FB689B6B92B2D6
:1049FC001A80FB689B6B9A1CFB689A63FB68DB8FC5
:104A0C009BB2013B9AB2FB68DA8711E0FEF7AAFB76
:104A1C0002463B69D31A3A689A4203D83B68B3F111
:104A2C00FF3F02D13B68002B02D10323FB7517E03B
:104A3C00FB68DB8F9BB2002BCDD13A693968F868E3
:104A4C0000F032FF0346002B02D0FB6820225A658F
:104A5C00FB685B6D002B02D00123FB7500E000BFEF
:104A6C00FB68012283F85120FB68002283F8502058
:104A7C00FB7D18461837BD4680BD80B58CB000AFA5
:104A8C00F860B9607A607B800123FB62002387F8B1
:104A9C002B30FB6893F85030012B01D102238AE1B3
:104AAC00FB68012283F85020FEF75CFB7862FB6800
:104ABC0093F8513087F82330FB685B68FB617B8887
:104ACC007B8397F82330012B0FD0FB69B3F5827FE2
:104ADC0007D1FB689B68002B03D197F82330042B7C
:104AEC0003D0022387F82B305BE1BB68002B05D089
:104AFC007B68002B02D07B88002B03D1012387F825
:104B0C002B304EE1FB6893F85130DBB2042B03D011
:104B1C00FB68052283F85120FB6800225A65FB686C
:104B2C007A689A63FB687A88DA87FB687A889A874E
:104B3C00FB68BA681A63FB687A88DA86FB687A883D
:104B4C009A86FB6800221A64FB6800225A64FB6890
:104B5C001B681B6803F04003402B07D0FB681B68E5
:104B6C001A68FB681B6842F040021A60FB68DB683D
:104B7C00B3F5006F78D1FB685B68002B02D07B8BA0
:104B8C00012B66D1FB681B6B1A88FB681B68DA600B
:104B9C00FB681B6B9A1CFB681A63FB68DB8E9BB271
:104BAC00013B9AB2FB68DA8653E0FB681B689B6892
:104BBC0003F00203022B1BD1FB68DB8E9BB2002B94
:104BCC0016D0FB6A012B13D1FB681B6B1A88FB6890
:104BDC001B68DA60FB681B6B9A1CFB681A63FB682A
:104BEC00DB8E9BB2013B9AB2FB68DA860023FB6238
:104BFC00FB681B689B6803F00103012B19D1FB6850
:104C0C00DB8F9BB2002B14D0FB681B68DA68FB6847
:104C1C009B6B92B21A80FB689B6B9A1CFB689A6325
:104C2C00FB68DB8F9BB2013B9AB2FB68DA870123EE
:104C3C00FB62FEF797FA02467B6AD31ABA6B9A426A
:104C4C0007D8BB6BB3F1FF3F03D0032387F82B309E
:104C5C00A7E0FB68DB8E9BB2002BA6D1FB68DB8F39
:104C6C009BB2002BA1D17CE0FB685B68002B02D0CF
:104C7C007B8B012B6BD1FB681A6BFB681B680C33AD
:104C8C0012781A70FB681B6B5A1CFB681A63FB6862
:104C9C00DB8E9BB2013B9AB2FB68DA8657E0FB686D
:104CAC001B689B6803F00203022B1CD1FB68DB8E94
:104CBC009BB2002B17D0FB6A012B14D1FB681A6B2B
:104CCC00FB681B680C3312781A70FB681B6B5A1C40
:104CDC00FB681A63FB68DB8E9BB2013B9AB2FB68E4
:104CEC00DA860023FB62FB681B689B6803F00103F8
:104CFC00012B19D1FB68DB8F9BB2002B14D0FB6806
:104D0C001B68DA68FB689B6BD2B21A70FB689B6BF2
:104D1C005A1CFB689A63FB68DB8F9BB2013B9AB20F
:104D2C00FB68DA870123FB62FEF71CFA02467B6AFA
:104D3C00D31ABA6B9A4203D8BB6BB3F1FF3F02D1C3
:104D4C00BB6B002B03D1032387F82B3029E0FB68C6
:104D5C00DB8E9BB2002BA2D1FB68DB8F9BB2002BAE
:104D6C009DD17A6AB96BF86800F0F0FD0346002B10
:104D7C0006D0012387F82B30FB6820225A6510E0FF
:104D8C00FB689B68002B0BD100237B61FB681B68C5
:104D9C00DB687B61FB681B689B687B617B6900E05F
:104DAC0000BFFB68012283F85120FB68002283F8C6
:104DBC00502097F82B3018463037BD4680BD000088
:104DCC0080B586B000AFF860B9601346FB80002355
:104DDC00FB75FB689B68002B10D1FB685B68B3F517
:104DEC00827F0BD1FB68042283F85120FB88BA68C0
:104DFC00B968F86800F0ACF803469FE0FB6893F8DC
:104E0C005030012B01D1022398E0FB68012283F87A
:104E1C005020FB6893F85130DBB2012B02D00223F7
:104E2C00FB7586E0BB68002B02D0FB88002B02D1FF
:104E3C000123FB757DE0FB68042283F85120FB689D
:104E4C0000225A65FB68BA689A63FB68FA889A87ED
:104E5C00FB68FA88DA87FB6800221A64FB68002278
:104E6C005A64FB6800229A86FB680022DA86FB688B
:104E7C009B68B3F5004F0FD1FB681B681A68FB6881
:104E8C001B6822F040021A60FB681B681A68FB68FA
:104E9C001B6822F480421A60FB68DB6C294ADA62D8
:104EAC00FB68DB6C284A9A62FB68DB6C274A1A6346
:104EBC00FB68DB6C00225A63FB68D86CFB681B68D0
:104ECC000C331946FB689B6B1A46FB68DB8F9BB255
:104EDC00FEF7DEFA0346002B0CD0FB685B6D43F04B
:104EEC001002FB685A650123FB75FB68012283F8ED
:104EFC0051201EE0FB681B681B6803F04003402B2D
:104F0C0007D0FB681B681A68FB681B6842F04002FC
:104F1C001A60FB681B685A68FB681B6842F0200229
:104F2C005A60FB681B685A68FB681B6842F00102F8
:104F3C005A60FB68002283F85020FB7D1846183716
:104F4C00BD4680BD03570008CF5500083B570008ED
:104F5C0080B586B000AFF860B9607A607B800023C2
:104F6C00FB75FB6893F85030012B01D10223E3E071
:104F7C00FB68012283F85020FB6893F85130BB7515
:104F8C00FB685B683B61BB7D012B0DD03B69B3F5C6
:104F9C00827F06D1FB689B68002B02D1BB7D042B62
:104FAC0002D00223FB75C2E0BB68002B05D07B68E6
:104FBC00002B02D07B88002B02D10123FB75B6E0BD
:104FCC00FB6893F85130DBB2042B03D0FB6805224D
:104FDC0083F85120FB6800225A65FB68BA681A6393
:104FEC00FB687A889A86FB687A88DA86FB687A6826
:104FFC009A63FB687A889A87FB687A88DA87FB68F9
:10500C0000221A64FB6800225A64FB6893F8513042
:10501C00DBB2042B08D1FB68DB6C494ADA62FB6813
:10502C00DB6C484A9A6207E0FB68DB6C464ADA6242
:10503C00FB68DB6C454A9A62FB68DB6C444A1A637A
:10504C00FB68DB6C00225A63FB68D86CFB681B683E
:10505C000C331946FB689B6B1A46FB68DB8F9BB2C3
:10506C00FEF716FA0346002B0CD0FB685B6D43F081
:10507C001002FB685A650123FB75FB68012283F85B
:10508C00512054E0FB681B685A68FB681B6842F0AF
:10509C0001025A60FB689B6C0022DA62FB689B6C15
:1050AC0000229A62FB689B6C00221A63FB689B6C63
:1050BC0000225A63FB68986CFB681B6B1946FB68F3
:1050CC001B680C331A46FB68DB8E9BB2FEF7E0F9CB
:1050DC000346002B0CD0FB685B6D43F01002FB68A1
:1050EC005A650123FB75FB68012283F851201EE0F1
:1050FC00FB681B681B6803F04003402B07D0FB6860
:10510C001B681A68FB681B6842F040021A60FB6857
:10511C001B685A68FB681B6842F020025A60FB68E7
:10512C001B685A68FB681B6842F002025A60FB68F5
:10513C00002283F85020FB7D18461837BD4680BDF1
:10514C0003570008CF5500081F5700087556000874
:10515C003B57000880B586B000AF78600023FB7524
:10516C006A4B1B686A4AA2FB03235B0A642202FB9C
:10517C0003F3FB60FB683B617B681B685A687B68C8
:10518C001B6822F020025A607B681B685B6803F086
:10519C008003002B17D07B685E4A5A643B69002B56
:1051AC0006D17B685B6D43F040027B685A6508E072
:1051BC003B69013B3B617B6893F85130DBB2072BB9
:1051CC00ECD1FB683B617B681B685B6803F04003B8
:1051DC00002B17D07B68504A1A643B69002B06D110
:1051EC007B685B6D43F040027B685A6508E03B6965
:1051FC00013B3B617B6893F85130DBB2072BECD160
:10520C00FB683B617B681B685B6803F00203002B47
:10521C002ED07B689B6C002B2AD07B689B6C002269
:10522C005A637B689B6C1846FEF791F90346002B7A
:10523C0002D07B6840225A657B681B685A687B6881
:10524C001B6822F002025A603B69002B06D17B6876
:10525C005B6D43F040027B685A6509E03B69013B9A
:10526C003B617B681B689B6803F00203002BEBD04F
:10527C007B681B685B6803F00103002B22D07B6802
:10528C00DB6C002B1ED07B68DB6C00225A637B68C6
:10529C00DB6C1846FEF75BF90346002B02D07B68EB
:1052AC0040225A657B681B681A687B681B6822F071
:1052BC0040021A607B681B685A687B681B6822F086
:1052CC0001025A607B680022DA877B680022DA864A
:1052DC007B685B6D402B02D10123FB7502E07B6880
:1052EC0000225A650023BB607B681B68DB68BB60CF
:1052FC007B681B689B68BB60BB687B68012283F87A
:10530C005120FB7D18461837BD4680BD100000208B
:10531C00F1197605215A00089559000880B584B01A
:10532C0000AF78600023FB737B689B6C002B0FD065
:10533C007B689B6C1846FEF70AF90346002B07D0D6
:10534C007B685B6D43F010027B685A650123FB732D
:10535C007B68DB6C002B0FD07B68DB6C1846FEF790
:10536C00F6F80346002B07D07B685B6D43F0100208
:10537C007B685A650123FB737B681B685A687B68E2
:10538C001B6822F003025A607B68012283F85120CB
:10539C00FB7B18461037BD4680BD000080B588B039
:1053AC0000AF78607B681B685B68FB617B681B687F
:1053BC009B68BB61BB699B0903F00103002B0FD1F8
:1053CC00BB6903F00103002B0AD0FB699B0903F0B6
:1053DC000103002B04D07B681B6C78689847BEE0F7
:1053EC00BB695B0803F00103002B0AD0FB69DB09E6
:1053FC0003F00103002B04D07B685B6C7868984742
:10540C00ADE0BB695B0903F00103002B06D1BB695E
:10541C009B0903F00103002B00F0A180FB695B09E1
:10542C0003F00103002B00F09A80BB699B0903F089
:10543C000103002B23D07B6893F85130DBB2032B94
:10544C0011D07B685B6D43F004027B685A650023C6
:10545C007B617B681B68DB687B617B681B689B6876
:10546C007B617B690BE000233B617B681B68DB681D
:10547C003B617B681B689B683B613B696FE0BB6968
:10548C005B0903F00103002B14D07B685B6D43F0C8
:10549C0001027B685A650023FB607B681B689B6874
:1054AC00FB607B681B681A687B681B6822F04002F3
:1054BC001A60FB687B685B6D002B4FD07B681B68A8
:1054CC005A687B681B6822F0E0025A607B680122F4
:1054DC0083F85120FB6903F00203002B04D1FB6914
:1054EC0003F00103002B34D07B681B685A687B687F
:1054FC001B6822F003025A607B68DB6C002B11D016
:10550C007B68DB6C174A5A637B68DB6C1846FEF7CA
:10551C0059F80346002B05D07B685B6D43F04002C5
:10552C007B685A657B689B6C002B16D07B689B6CE8
:10553C000C4A5A637B689B6C1846FEF743F803468B
:10554C00002B0AD07B685B6D43F040027B685A6588
:10555C0003E0786800F02CF800E000BF00BF2037B3
:10556C00BD4680BD7B57000880B483B000AF786027
:10557C0000BF0C37BD4680BC704780B483B000AF11
:10558C00786000BF0C37BD4680BC704780B483B0D8
:10559C0000AF786000BF0C37BD4680BC704780B44C
:1055AC0083B000AF786000BF0C37BD4680BC70473D
:1055BC0080B483B000AF786000BF0C37BD4680BCB0
:1055CC00704780B584B000AF78607B685B6AFB6025
:1055DC00FDF7C8FDB8607B681B681B6803F02003EF
:1055EC00202B3BD0FB681B685A68FB681B6822F0B9
:1055FC0020025A60FB689B68002B0DD1FB685B682E
:10560C00B3F5827F08D1FB681B685A68FB681B687E
:10561C0022F003025A6007E0FB681B685A68FB68BB
:10562C001B6822F001025A60BA686421F86800F025
:10563C003BF90346002B02D0FB6820225A65FB681D
:10564C000022DA87FB68012283F85120FB685B6D2E
:10565C00002B03D0F868FFF7ABFF02E0F868FFF708
:10566C0083FF1037BD4680BD80B584B000AF786035
:10567C007B685B6AFB60FDF775FDB8607B681B6837
:10568C001B6803F02003202B2FD0FB681B685A6883
:10569C00FB681B6822F020025A60BA686421F86823
:1056AC0000F054F90346002B05D0FB685B6D43F00A
:1056BC002002FB685A65FB681B685A68FB681B680C
:1056CC0022F003025A60FB680022DA86FB68002293
:1056DC00DA87FB68012283F85120FB685B6D002B95
:1056EC0003D0F868FFF764FF02E0F868FFF745FFA6
:1056FC001037BD4680BD80B584B000AF78607B6844
:10570C005B6AFB60F868FFF741FF00BF1037BD46CE
:10571C0080BD80B584B000AF78607B685B6AFB604D
:10572C00F868FFF73CFF00BF1037BD4680BD80B561
:10573C0084B000AF78607B685B6AFB60FB681B68B9
:10574C005A68FB681B6822F003025A60FB685B6DA9
:10575C0043F01002FB685A65FB68012283F8512064
:10576C00F868FFF725FF00BF1037BD4680BD80B538
:10577C0084B000AF78607B685B6AFB60FB680022DA
:10578C00DA87FB680022DA86F868FFF711FF00BFA2
:10579C001037BD4680BD000080B588B000AFF86002
:1057AC00B9603B601346FB71FDF7DCFC0246BB6A3B
:1057BC009B1A3A681344FB61FDF7D4FCB861394B72
:1057CC001B685B011B0DFA6902FB03F37B6154E060
:1057DC003B68B3F1FF3F50D0FDF7C4FC0246BB69F8
:1057EC00D31AFA699A4202D9FB69002B3DD1FB68A6
:1057FC001B685A68FB681B6822F0E0025A60FB6861
:10580C005B68B3F5827F11D1FB689B68B3F5004FE1
:10581C0004D0FB689B68B3F5806F07D1FB681B68ED
:10582C001A68FB681B6822F040021A60FB689B6ACE
:10583C00B3F5005F0FD1FB681B681A68FB681B6827
:10584C0022F400521A60FB681B681A68FB681B681C
:10585C0042F400521A60FB68012283F85120FB6865
:10586C00002283F85020032317E07B69002B01D121
:10587C000023FB617B69013B7B61FB681B689A68B9
:10588C00BB681340BA689A420CBF01230023DBB2F9
:10589C001A46FB799A429BD1002318462037BD4605
:1058AC0080BD00BF1000002080B586B002AFF8604C
:1058BC00B9607A60FB685B68B3F5827F11D1FB68D5
:1058CC009B68B3F5004F04D0FB689B68B3F5806F01
:1058DC0007D1FB681B681A68FB681B6822F0400242
:1058EC001A60FB685B68B3F5827F17D1FB689B6815
:1058FC00B3F5806F12D17B680093BB680022012145
:10590C00F868FFF749FF0346002B1AD0FB685B6D64
:10591C0043F02002FB685A65032313E07B68009375
:10592C00BB6800228021F868FFF736FF0346002B86
:10593C0007D0FB685B6D43F02002FB685A650323BC
:10594C0000E0002318461037BD4680BD80B586B0F8
:10595C0002AFF860B9607A607B680093BB68002284
:10596C008021F868FFF718FF0346002B07D0FB686F
:10597C005B6D43F02002FB685A65032300E00023B3
:10598C0018461037BD4680BD80B485B000AF786036
:10599C000023FB601D4B1B681D4AA2FB03235B0A03
:1059AC00642202FB03F3BB60BB68002B06D17B684F
:1059BC005B6D43F040027B685A6509E0BB68013BB4
:1059CC00BB607B681B689B6803F00203002BEBD069
:1059DC007B681B681A687B681B6822F040021A609F
:1059EC007B681B685A687B681B6822F0E0025A606F
:1059FC007B681B68DB68FB60FB687B68072283F8AD
:105A0C00512000BF1437BD4680BC704710000020E9
:105A1C00F119760580B483B000AF78607B681B68A1
:105A2C005A687B681B6822F080025A607B681B688E
:105A3C001A687B681B6822F040021A607B68072298
:105A4C0083F8512000BF0C37BD4680BC7047000066
:105A5C000C480D490D4A002302E0D458C4500433BD
:105A6C00C4188C42F9D30A4A0A4C002301E0136093
:105A7C000432A242FBD3FDF717FB00F063F8FCF7EE
:105A8C00EDFF7047000000206C000020306A000819
:105A9C006C000020B8070020FEE700000CB430B505
:105AAC00184B0C1E1D689DB008DA8B234FF0FF308D
:105ABC002B601DB0BDE8304002B070474FF402734C
:105ACC00ADF814304FF000031B930CBF234604F1C8
